{
	"contracts/StorageFactory.sol": {
		"StorageFactory": {
			"abi": [
				{
					"inputs": [],
					"name": "createSimpleStorage",
					"outputs": [],
					"stateMutability": "nonpayable",
					"type": "function"
				},
				{
					"inputs": [
						{
							"internalType": "uint256",
							"name": "index",
							"type": "uint256"
						}
					],
					"name": "get",
					"outputs": [
						{
							"internalType": "uint256",
							"name": "",
							"type": "uint256"
						}
					],
					"stateMutability": "view",
					"type": "function"
				},
				{
					"inputs": [
						{
							"internalType": "uint256",
							"name": "",
							"type": "uint256"
						}
					],
					"name": "simpleStorageArray",
					"outputs": [
						{
							"internalType": "contract Storage",
							"name": "",
							"type": "address"
						}
					],
					"stateMutability": "view",
					"type": "function"
				},
				{
					"inputs": [
						{
							"internalType": "uint256",
							"name": "index",
							"type": "uint256"
						},
						{
							"internalType": "uint256",
							"name": "favNumber",
							"type": "uint256"
						}
					],
					"name": "storeFromFactory",
					"outputs": [],
					"stateMutability": "nonpayable",
					"type": "function"
				}
			],
			"devdoc": {
				"kind": "dev",
				"methods": {},
				"version": 1
			},
			"evm": {
				"assembly": "    /* \"contracts/StorageFactory.sol\":91:609  contract StorageFactory {... */\n  mstore(0x40, 0x80)\n  callvalue\n  dup1\n  iszero\n  tag_1\n  jumpi\n  0x00\n  dup1\n  revert\ntag_1:\n  pop\n  dataSize(sub_0)\n  dup1\n  dataOffset(sub_0)\n  0x00\n  codecopy\n  0x00\n  return\nstop\n\nsub_0: assembly {\n        /* \"contracts/StorageFactory.sol\":91:609  contract StorageFactory {... */\n      mstore(0x40, 0x80)\n      callvalue\n      dup1\n      iszero\n      tag_1\n      jumpi\n      0x00\n      dup1\n      revert\n    tag_1:\n      pop\n      jumpi(tag_2, lt(calldatasize, 0x04))\n      shr(0xe0, calldataload(0x00))\n      dup1\n      0x40d66b3b\n      eq\n      tag_3\n      jumpi\n      dup1\n      0x64591bf1\n      eq\n      tag_4\n      jumpi\n      dup1\n      0x6e97897e\n      eq\n      tag_5\n      jumpi\n      dup1\n      0x9507d39a\n      eq\n      tag_6\n      jumpi\n    tag_2:\n      0x00\n      dup1\n      revert\n        /* \"contracts/StorageFactory.sol\":165:305  function createSimpleStorage() public {... */\n    tag_3:\n      tag_7\n      tag_8\n      jump\t// in\n    tag_7:\n      stop\n        /* \"contracts/StorageFactory.sol\":122:158  Storage[] public  simpleStorageArray */\n    tag_4:\n      tag_9\n      0x04\n      dup1\n      calldatasize\n      sub\n      dup2\n      add\n      swap1\n      tag_10\n      swap2\n      swap1\n      tag_11\n      jump\t// in\n    tag_10:\n      tag_12\n      jump\t// in\n    tag_9:\n      mload(0x40)\n      tag_13\n      swap2\n      swap1\n      tag_14\n      jump\t// in\n    tag_13:\n      mload(0x40)\n      dup1\n      swap2\n      sub\n      swap1\n      return\n        /* \"contracts/StorageFactory.sol\":311:455  function storeFromFactory(uint256 index, uint256 favNumber) public {... */\n    tag_5:\n      tag_15\n      0x04\n      dup1\n      calldatasize\n      sub\n      dup2\n      add\n      swap1\n      tag_16\n      swap2\n      swap1\n      tag_17\n      jump\t// in\n    tag_16:\n      tag_18\n      jump\t// in\n    tag_15:\n      stop\n        /* \"contracts/StorageFactory.sol\":461:606  function get(uint256 index) public  view returns(uint256) {... */\n    tag_6:\n      tag_19\n      0x04\n      dup1\n      calldatasize\n      sub\n      dup2\n      add\n      swap1\n      tag_20\n      swap2\n      swap1\n      tag_11\n      jump\t// in\n    tag_20:\n      tag_21\n      jump\t// in\n    tag_19:\n      mload(0x40)\n      tag_22\n      swap2\n      swap1\n      tag_23\n      jump\t// in\n    tag_22:\n      mload(0x40)\n      dup1\n      swap2\n      sub\n      swap1\n      return\n        /* \"contracts/StorageFactory.sol\":165:305  function createSimpleStorage() public {... */\n    tag_8:\n        /* \"contracts/StorageFactory.sol\":213:234  Storage simpleStorage */\n      0x00\n        /* \"contracts/StorageFactory.sol\":237:250  new Storage() */\n      mload(0x40)\n      tag_25\n      swap1\n      tag_26\n      jump\t// in\n    tag_25:\n      mload(0x40)\n      dup1\n      swap2\n      sub\n      swap1\n      0x00\n      create\n      dup1\n      iszero\n      dup1\n      iszero\n      tag_27\n      jumpi\n      returndatasize\n      0x00\n      dup1\n      returndatacopy\n      revert(0x00, returndatasize)\n    tag_27:\n      pop\n        /* \"contracts/StorageFactory.sol\":213:250  Storage simpleStorage = new Storage() */\n      swap1\n      pop\n        /* \"contracts/StorageFactory.sol\":260:278  simpleStorageArray */\n      0x00\n        /* \"contracts/StorageFactory.sol\":284:297  simpleStorage */\n      dup2\n        /* \"contracts/StorageFactory.sol\":260:298  simpleStorageArray.push(simpleStorage) */\n      swap1\n      dup1\n      0x01\n      dup2\n      sload\n      add\n      dup1\n      dup3\n      sstore\n      dup1\n      swap2\n      pop\n      pop\n      0x01\n      swap1\n      sub\n      swap1\n      0x00\n      mstore\n      keccak256(0x00, 0x20)\n      add\n      0x00\n      swap1\n      swap2\n      swap1\n      swap2\n      swap1\n      swap2\n      0x0100\n      exp\n      dup2\n      sload\n      dup2\n      0xffffffffffffffffffffffffffffffffffffffff\n      mul\n      not\n      and\n      swap1\n      dup4\n      0xffffffffffffffffffffffffffffffffffffffff\n      and\n      mul\n      or\n      swap1\n      sstore\n      pop\n        /* \"contracts/StorageFactory.sol\":203:305  {... */\n      pop\n        /* \"contracts/StorageFactory.sol\":165:305  function createSimpleStorage() public {... */\n      jump\t// out\n        /* \"contracts/StorageFactory.sol\":122:158  Storage[] public  simpleStorageArray */\n    tag_12:\n      0x00\n      dup2\n      dup2\n      sload\n      dup2\n      lt\n      tag_29\n      jumpi\n      0x00\n      dup1\n      revert\n    tag_29:\n      swap1\n      0x00\n      mstore\n      keccak256(0x00, 0x20)\n      add\n      0x00\n      swap2\n      pop\n      sload\n      swap1\n      0x0100\n      exp\n      swap1\n      div\n      0xffffffffffffffffffffffffffffffffffffffff\n      and\n      dup2\n      jump\t// out\n        /* \"contracts/StorageFactory.sol\":311:455  function storeFromFactory(uint256 index, uint256 favNumber) public {... */\n    tag_18:\n        /* \"contracts/StorageFactory.sol\":404:422  simpleStorageArray */\n      0x00\n        /* \"contracts/StorageFactory.sol\":423:428  index */\n      dup3\n        /* \"contracts/StorageFactory.sol\":404:429  simpleStorageArray[index] */\n      dup2\n      sload\n      dup2\n      lt\n      tag_32\n      jumpi\n      tag_33\n      tag_34\n      jump\t// in\n    tag_33:\n    tag_32:\n      swap1\n      0x00\n      mstore\n      keccak256(0x00, 0x20)\n      add\n      0x00\n      swap1\n      sload\n      swap1\n      0x0100\n      exp\n      swap1\n      div\n      0xffffffffffffffffffffffffffffffffffffffff\n      and\n        /* \"contracts/StorageFactory.sol\":388:437  Storage(address(simpleStorageArray[index])).store */\n      0xffffffffffffffffffffffffffffffffffffffff\n      and\n      0x6057361d\n        /* \"contracts/StorageFactory.sol\":438:447  favNumber */\n      dup3\n        /* \"contracts/StorageFactory.sol\":388:448  Storage(address(simpleStorageArray[index])).store(favNumber) */\n      mload(0x40)\n      dup3\n      0xffffffff\n      and\n      0xe0\n      shl\n      dup2\n      mstore\n      0x04\n      add\n      tag_36\n      swap2\n      swap1\n      tag_23\n      jump\t// in\n    tag_36:\n      0x00\n      mload(0x40)\n      dup1\n      dup4\n      sub\n      dup2\n      0x00\n      dup8\n      dup1\n      extcodesize\n      iszero\n      dup1\n      iszero\n      tag_37\n      jumpi\n      0x00\n      dup1\n      revert\n    tag_37:\n      pop\n      gas\n      call\n      iszero\n      dup1\n      iszero\n      tag_39\n      jumpi\n      returndatasize\n      0x00\n      dup1\n      returndatacopy\n      revert(0x00, returndatasize)\n    tag_39:\n      pop\n      pop\n      pop\n      pop\n        /* \"contracts/StorageFactory.sol\":311:455  function storeFromFactory(uint256 index, uint256 favNumber) public {... */\n      pop\n      pop\n      jump\t// out\n        /* \"contracts/StorageFactory.sol\":461:606  function get(uint256 index) public  view returns(uint256) {... */\n    tag_21:\n        /* \"contracts/StorageFactory.sol\":510:517  uint256 */\n      0x00\n        /* \"contracts/StorageFactory.sol\":553:571  simpleStorageArray */\n      dup1\n        /* \"contracts/StorageFactory.sol\":572:577  index */\n      dup3\n        /* \"contracts/StorageFactory.sol\":553:578  simpleStorageArray[index] */\n      dup2\n      sload\n      dup2\n      lt\n      tag_41\n      jumpi\n      tag_42\n      tag_34\n      jump\t// in\n    tag_42:\n    tag_41:\n      swap1\n      0x00\n      mstore\n      keccak256(0x00, 0x20)\n      add\n      0x00\n      swap1\n      sload\n      swap1\n      0x0100\n      exp\n      swap1\n      div\n      0xffffffffffffffffffffffffffffffffffffffff\n      and\n        /* \"contracts/StorageFactory.sol\":537:588  Storage(address(simpleStorageArray[index])).retrive */\n      0xffffffffffffffffffffffffffffffffffffffff\n      and\n      0xa6b7fc5b\n        /* \"contracts/StorageFactory.sol\":537:590  Storage(address(simpleStorageArray[index])).retrive() */\n      mload(0x40)\n      dup2\n      0xffffffff\n      and\n      0xe0\n      shl\n      dup2\n      mstore\n      0x04\n      add\n      0x20\n      mload(0x40)\n      dup1\n      dup4\n      sub\n      dup2\n      dup7\n      gas\n      staticcall\n      iszero\n      dup1\n      iszero\n      tag_45\n      jumpi\n      returndatasize\n      0x00\n      dup1\n      returndatacopy\n      revert(0x00, returndatasize)\n    tag_45:\n      pop\n      pop\n      pop\n      pop\n      mload(0x40)\n      returndatasize\n      not(0x1f)\n      0x1f\n      dup3\n      add\n      and\n      dup3\n      add\n      dup1\n      0x40\n      mstore\n      pop\n      dup2\n      add\n      swap1\n      tag_46\n      swap2\n      swap1\n      tag_47\n      jump\t// in\n    tag_46:\n        /* \"contracts/StorageFactory.sol\":529:590  return  Storage(address(simpleStorageArray[index])).retrive() */\n      swap1\n      pop\n        /* \"contracts/StorageFactory.sol\":461:606  function get(uint256 index) public  view returns(uint256) {... */\n      swap2\n      swap1\n      pop\n      jump\t// out\n    tag_26:\n      dataSize(sub_0)\n      dup1\n      dataOffset(sub_0)\n      dup4\n      codecopy\n      add\n      swap1\n      jump\t// out\n        /* \"#utility.yul\":88:205   */\n    tag_49:\n        /* \"#utility.yul\":197:198   */\n      0x00\n        /* \"#utility.yul\":194:195   */\n      dup1\n        /* \"#utility.yul\":187:199   */\n      revert\n        /* \"#utility.yul\":334:411   */\n    tag_51:\n        /* \"#utility.yul\":371:378   */\n      0x00\n        /* \"#utility.yul\":400:405   */\n      dup2\n        /* \"#utility.yul\":389:405   */\n      swap1\n      pop\n        /* \"#utility.yul\":334:411   */\n      swap2\n      swap1\n      pop\n      jump\t// out\n        /* \"#utility.yul\":417:539   */\n    tag_52:\n        /* \"#utility.yul\":490:514   */\n      tag_68\n        /* \"#utility.yul\":508:513   */\n      dup2\n        /* \"#utility.yul\":490:514   */\n      tag_51\n      jump\t// in\n    tag_68:\n        /* \"#utility.yul\":483:488   */\n      dup2\n        /* \"#utility.yul\":480:515   */\n      eq\n        /* \"#utility.yul\":470:533   */\n      tag_69\n      jumpi\n        /* \"#utility.yul\":529:530   */\n      0x00\n        /* \"#utility.yul\":526:527   */\n      dup1\n        /* \"#utility.yul\":519:531   */\n      revert\n        /* \"#utility.yul\":470:533   */\n    tag_69:\n        /* \"#utility.yul\":417:539   */\n      pop\n      jump\t// out\n        /* \"#utility.yul\":545:684   */\n    tag_53:\n        /* \"#utility.yul\":591:596   */\n      0x00\n        /* \"#utility.yul\":629:635   */\n      dup2\n        /* \"#utility.yul\":616:636   */\n      calldataload\n        /* \"#utility.yul\":607:636   */\n      swap1\n      pop\n        /* \"#utility.yul\":645:678   */\n      tag_71\n        /* \"#utility.yul\":672:677   */\n      dup2\n        /* \"#utility.yul\":645:678   */\n      tag_52\n      jump\t// in\n    tag_71:\n        /* \"#utility.yul\":545:684   */\n      swap3\n      swap2\n      pop\n      pop\n      jump\t// out\n        /* \"#utility.yul\":690:1019   */\n    tag_11:\n        /* \"#utility.yul\":749:755   */\n      0x00\n        /* \"#utility.yul\":798:800   */\n      0x20\n        /* \"#utility.yul\":786:795   */\n      dup3\n        /* \"#utility.yul\":777:784   */\n      dup5\n        /* \"#utility.yul\":773:796   */\n      sub\n        /* \"#utility.yul\":769:801   */\n      slt\n        /* \"#utility.yul\":766:885   */\n      iszero\n      tag_73\n      jumpi\n        /* \"#utility.yul\":804:883   */\n      tag_74\n      tag_49\n      jump\t// in\n    tag_74:\n        /* \"#utility.yul\":766:885   */\n    tag_73:\n        /* \"#utility.yul\":924:925   */\n      0x00\n        /* \"#utility.yul\":949:1002   */\n      tag_75\n        /* \"#utility.yul\":994:1001   */\n      dup5\n        /* \"#utility.yul\":985:991   */\n      dup3\n        /* \"#utility.yul\":974:983   */\n      dup6\n        /* \"#utility.yul\":970:992   */\n      add\n        /* \"#utility.yul\":949:1002   */\n      tag_53\n      jump\t// in\n    tag_75:\n        /* \"#utility.yul\":939:1002   */\n      swap2\n      pop\n        /* \"#utility.yul\":895:1012   */\n      pop\n        /* \"#utility.yul\":690:1019   */\n      swap3\n      swap2\n      pop\n      pop\n      jump\t// out\n        /* \"#utility.yul\":1025:1151   */\n    tag_54:\n        /* \"#utility.yul\":1062:1069   */\n      0x00\n        /* \"#utility.yul\":1102:1144   */\n      0xffffffffffffffffffffffffffffffffffffffff\n        /* \"#utility.yul\":1095:1100   */\n      dup3\n        /* \"#utility.yul\":1091:1145   */\n      and\n        /* \"#utility.yul\":1080:1145   */\n      swap1\n      pop\n        /* \"#utility.yul\":1025:1151   */\n      swap2\n      swap1\n      pop\n      jump\t// out\n        /* \"#utility.yul\":1157:1217   */\n    tag_55:\n        /* \"#utility.yul\":1185:1188   */\n      0x00\n        /* \"#utility.yul\":1206:1211   */\n      dup2\n        /* \"#utility.yul\":1199:1211   */\n      swap1\n      pop\n        /* \"#utility.yul\":1157:1217   */\n      swap2\n      swap1\n      pop\n      jump\t// out\n        /* \"#utility.yul\":1223:1365   */\n    tag_56:\n        /* \"#utility.yul\":1273:1282   */\n      0x00\n        /* \"#utility.yul\":1306:1359   */\n      tag_79\n        /* \"#utility.yul\":1324:1358   */\n      tag_80\n        /* \"#utility.yul\":1333:1357   */\n      tag_81\n        /* \"#utility.yul\":1351:1356   */\n      dup5\n        /* \"#utility.yul\":1333:1357   */\n      tag_54\n      jump\t// in\n    tag_81:\n        /* \"#utility.yul\":1324:1358   */\n      tag_55\n      jump\t// in\n    tag_80:\n        /* \"#utility.yul\":1306:1359   */\n      tag_54\n      jump\t// in\n    tag_79:\n        /* \"#utility.yul\":1293:1359   */\n      swap1\n      pop\n        /* \"#utility.yul\":1223:1365   */\n      swap2\n      swap1\n      pop\n      jump\t// out\n        /* \"#utility.yul\":1371:1497   */\n    tag_57:\n        /* \"#utility.yul\":1421:1430   */\n      0x00\n        /* \"#utility.yul\":1454:1491   */\n      tag_83\n        /* \"#utility.yul\":1485:1490   */\n      dup3\n        /* \"#utility.yul\":1454:1491   */\n      tag_56\n      jump\t// in\n    tag_83:\n        /* \"#utility.yul\":1441:1491   */\n      swap1\n      pop\n        /* \"#utility.yul\":1371:1497   */\n      swap2\n      swap1\n      pop\n      jump\t// out\n        /* \"#utility.yul\":1503:1643   */\n    tag_58:\n        /* \"#utility.yul\":1567:1576   */\n      0x00\n        /* \"#utility.yul\":1600:1637   */\n      tag_85\n        /* \"#utility.yul\":1631:1636   */\n      dup3\n        /* \"#utility.yul\":1600:1637   */\n      tag_57\n      jump\t// in\n    tag_85:\n        /* \"#utility.yul\":1587:1637   */\n      swap1\n      pop\n        /* \"#utility.yul\":1503:1643   */\n      swap2\n      swap1\n      pop\n      jump\t// out\n        /* \"#utility.yul\":1649:1808   */\n    tag_59:\n        /* \"#utility.yul\":1750:1801   */\n      tag_87\n        /* \"#utility.yul\":1795:1800   */\n      dup2\n        /* \"#utility.yul\":1750:1801   */\n      tag_58\n      jump\t// in\n    tag_87:\n        /* \"#utility.yul\":1745:1748   */\n      dup3\n        /* \"#utility.yul\":1738:1802   */\n      mstore\n        /* \"#utility.yul\":1649:1808   */\n      pop\n      pop\n      jump\t// out\n        /* \"#utility.yul\":1814:2064   */\n    tag_14:\n        /* \"#utility.yul\":1921:1925   */\n      0x00\n        /* \"#utility.yul\":1959:1961   */\n      0x20\n        /* \"#utility.yul\":1948:1957   */\n      dup3\n        /* \"#utility.yul\":1944:1962   */\n      add\n        /* \"#utility.yul\":1936:1962   */\n      swap1\n      pop\n        /* \"#utility.yul\":1972:2057   */\n      tag_89\n        /* \"#utility.yul\":2054:2055   */\n      0x00\n        /* \"#utility.yul\":2043:2052   */\n      dup4\n        /* \"#utility.yul\":2039:2056   */\n      add\n        /* \"#utility.yul\":2030:2036   */\n      dup5\n        /* \"#utility.yul\":1972:2057   */\n      tag_59\n      jump\t// in\n    tag_89:\n        /* \"#utility.yul\":1814:2064   */\n      swap3\n      swap2\n      pop\n      pop\n      jump\t// out\n        /* \"#utility.yul\":2070:2544   */\n    tag_17:\n        /* \"#utility.yul\":2138:2144   */\n      0x00\n        /* \"#utility.yul\":2146:2152   */\n      dup1\n        /* \"#utility.yul\":2195:2197   */\n      0x40\n        /* \"#utility.yul\":2183:2192   */\n      dup4\n        /* \"#utility.yul\":2174:2181   */\n      dup6\n        /* \"#utility.yul\":2170:2193   */\n      sub\n        /* \"#utility.yul\":2166:2198   */\n      slt\n        /* \"#utility.yul\":2163:2282   */\n      iszero\n      tag_91\n      jumpi\n        /* \"#utility.yul\":2201:2280   */\n      tag_92\n      tag_49\n      jump\t// in\n    tag_92:\n        /* \"#utility.yul\":2163:2282   */\n    tag_91:\n        /* \"#utility.yul\":2321:2322   */\n      0x00\n        /* \"#utility.yul\":2346:2399   */\n      tag_93\n        /* \"#utility.yul\":2391:2398   */\n      dup6\n        /* \"#utility.yul\":2382:2388   */\n      dup3\n        /* \"#utility.yul\":2371:2380   */\n      dup7\n        /* \"#utility.yul\":2367:2389   */\n      add\n        /* \"#utility.yul\":2346:2399   */\n      tag_53\n      jump\t// in\n    tag_93:\n        /* \"#utility.yul\":2336:2399   */\n      swap3\n      pop\n        /* \"#utility.yul\":2292:2409   */\n      pop\n        /* \"#utility.yul\":2448:2450   */\n      0x20\n        /* \"#utility.yul\":2474:2527   */\n      tag_94\n        /* \"#utility.yul\":2519:2526   */\n      dup6\n        /* \"#utility.yul\":2510:2516   */\n      dup3\n        /* \"#utility.yul\":2499:2508   */\n      dup7\n        /* \"#utility.yul\":2495:2517   */\n      add\n        /* \"#utility.yul\":2474:2527   */\n      tag_53\n      jump\t// in\n    tag_94:\n        /* \"#utility.yul\":2464:2527   */\n      swap2\n      pop\n        /* \"#utility.yul\":2419:2537   */\n      pop\n        /* \"#utility.yul\":2070:2544   */\n      swap3\n      pop\n      swap3\n      swap1\n      pop\n      jump\t// out\n        /* \"#utility.yul\":2550:2668   */\n    tag_60:\n        /* \"#utility.yul\":2637:2661   */\n      tag_96\n        /* \"#utility.yul\":2655:2660   */\n      dup2\n        /* \"#utility.yul\":2637:2661   */\n      tag_51\n      jump\t// in\n    tag_96:\n        /* \"#utility.yul\":2632:2635   */\n      dup3\n        /* \"#utility.yul\":2625:2662   */\n      mstore\n        /* \"#utility.yul\":2550:2668   */\n      pop\n      pop\n      jump\t// out\n        /* \"#utility.yul\":2674:2896   */\n    tag_23:\n        /* \"#utility.yul\":2767:2771   */\n      0x00\n        /* \"#utility.yul\":2805:2807   */\n      0x20\n        /* \"#utility.yul\":2794:2803   */\n      dup3\n        /* \"#utility.yul\":2790:2808   */\n      add\n        /* \"#utility.yul\":2782:2808   */\n      swap1\n      pop\n        /* \"#utility.yul\":2818:2889   */\n      tag_98\n        /* \"#utility.yul\":2886:2887   */\n      0x00\n        /* \"#utility.yul\":2875:2884   */\n      dup4\n        /* \"#utility.yul\":2871:2888   */\n      add\n        /* \"#utility.yul\":2862:2868   */\n      dup5\n        /* \"#utility.yul\":2818:2889   */\n      tag_60\n      jump\t// in\n    tag_98:\n        /* \"#utility.yul\":2674:2896   */\n      swap3\n      swap2\n      pop\n      pop\n      jump\t// out\n        /* \"#utility.yul\":2902:3082   */\n    tag_34:\n        /* \"#utility.yul\":2950:3027   */\n      0x4e487b7100000000000000000000000000000000000000000000000000000000\n        /* \"#utility.yul\":2947:2948   */\n      0x00\n        /* \"#utility.yul\":2940:3028   */\n      mstore\n        /* \"#utility.yul\":3047:3051   */\n      0x32\n        /* \"#utility.yul\":3044:3045   */\n      0x04\n        /* \"#utility.yul\":3037:3052   */\n      mstore\n        /* \"#utility.yul\":3071:3075   */\n      0x24\n        /* \"#utility.yul\":3068:3069   */\n      0x00\n        /* \"#utility.yul\":3061:3076   */\n      revert\n        /* \"#utility.yul\":3088:3231   */\n    tag_61:\n        /* \"#utility.yul\":3145:3150   */\n      0x00\n        /* \"#utility.yul\":3176:3182   */\n      dup2\n        /* \"#utility.yul\":3170:3183   */\n      mload\n        /* \"#utility.yul\":3161:3183   */\n      swap1\n      pop\n        /* \"#utility.yul\":3192:3225   */\n      tag_101\n        /* \"#utility.yul\":3219:3224   */\n      dup2\n        /* \"#utility.yul\":3192:3225   */\n      tag_52\n      jump\t// in\n    tag_101:\n        /* \"#utility.yul\":3088:3231   */\n      swap3\n      swap2\n      pop\n      pop\n      jump\t// out\n        /* \"#utility.yul\":3237:3588   */\n    tag_47:\n        /* \"#utility.yul\":3307:3313   */\n      0x00\n        /* \"#utility.yul\":3356:3358   */\n      0x20\n        /* \"#utility.yul\":3344:3353   */\n      dup3\n        /* \"#utility.yul\":3335:3342   */\n      dup5\n        /* \"#utility.yul\":3331:3354   */\n      sub\n        /* \"#utility.yul\":3327:3359   */\n      slt\n        /* \"#utility.yul\":3324:3443   */\n      iszero\n      tag_103\n      jumpi\n        /* \"#utility.yul\":3362:3441   */\n      tag_104\n      tag_49\n      jump\t// in\n    tag_104:\n        /* \"#utility.yul\":3324:3443   */\n    tag_103:\n        /* \"#utility.yul\":3482:3483   */\n      0x00\n        /* \"#utility.yul\":3507:3571   */\n      tag_105\n        /* \"#utility.yul\":3563:3570   */\n      dup5\n        /* \"#utility.yul\":3554:3560   */\n      dup3\n        /* \"#utility.yul\":3543:3552   */\n      dup6\n        /* \"#utility.yul\":3539:3561   */\n      add\n        /* \"#utility.yul\":3507:3571   */\n      tag_61\n      jump\t// in\n    tag_105:\n        /* \"#utility.yul\":3497:3571   */\n      swap2\n      pop\n        /* \"#utility.yul\":3453:3581   */\n      pop\n        /* \"#utility.yul\":3237:3588   */\n      swap3\n      swap2\n      pop\n      pop\n      jump\t// out\n    stop\n\n    sub_0: assembly {\n            /* \"contracts/Storage.sol\":58:595  contract Storage {... */\n          mstore(0x40, 0x80)\n          callvalue\n          dup1\n          iszero\n          tag_1\n          jumpi\n          0x00\n          dup1\n          revert\n        tag_1:\n          pop\n          dataSize(sub_0)\n          dup1\n          dataOffset(sub_0)\n          0x00\n          codecopy\n          0x00\n          return\n        stop\n\n        sub_0: assembly {\n                /* \"contracts/Storage.sol\":58:595  contract Storage {... */\n              mstore(0x40, 0x80)\n              callvalue\n              dup1\n              iszero\n              tag_1\n              jumpi\n              0x00\n              dup1\n              revert\n            tag_1:\n              pop\n              jumpi(tag_2, lt(calldatasize, 0x04))\n              shr(0xe0, calldataload(0x00))\n              dup1\n              0x43ec8f47\n              eq\n              tag_3\n              jumpi\n              dup1\n              0x6057361d\n              eq\n              tag_4\n              jumpi\n              dup1\n              0x6f760f41\n              eq\n              tag_5\n              jumpi\n              dup1\n              0x9e7a13ad\n              eq\n              tag_6\n              jumpi\n              dup1\n              0xa6b7fc5b\n              eq\n              tag_7\n              jumpi\n            tag_2:\n              0x00\n              dup1\n              revert\n                /* \"contracts/Storage.sol\":206:255  mapping(string => uint256) public nameToFavNumber */\n            tag_3:\n              tag_8\n              0x04\n              dup1\n              calldatasize\n              sub\n              dup2\n              add\n              swap1\n              tag_9\n              swap2\n              swap1\n              tag_10\n              jump\t// in\n            tag_9:\n              tag_11\n              jump\t// in\n            tag_8:\n              mload(0x40)\n              tag_12\n              swap2\n              swap1\n              tag_13\n              jump\t// in\n            tag_12:\n              mload(0x40)\n              dup1\n              swap2\n              sub\n              swap1\n              return\n                /* \"contracts/Storage.sol\":262:335  function store(uint256 _number) public  {... */\n            tag_4:\n              tag_14\n              0x04\n              dup1\n              calldatasize\n              sub\n              dup2\n              add\n              swap1\n              tag_15\n              swap2\n              swap1\n              tag_16\n              jump\t// in\n            tag_15:\n              tag_17\n              jump\t// in\n            tag_14:\n              stop\n                /* \"contracts/Storage.sol\":425:593  function addPerson(string memory _name, uint256 _favNumber) public  {... */\n            tag_5:\n              tag_18\n              0x04\n              dup1\n              calldatasize\n              sub\n              dup2\n              add\n              swap1\n              tag_19\n              swap2\n              swap1\n              tag_20\n              jump\t// in\n            tag_19:\n              tag_21\n              jump\t// in\n            tag_18:\n              stop\n                /* \"contracts/Storage.sol\":177:199  People[] public people */\n            tag_6:\n              tag_22\n              0x04\n              dup1\n              calldatasize\n              sub\n              dup2\n              add\n              swap1\n              tag_23\n              swap2\n              swap1\n              tag_16\n              jump\t// in\n            tag_23:\n              tag_24\n              jump\t// in\n            tag_22:\n              mload(0x40)\n              tag_25\n              swap3\n              swap2\n              swap1\n              tag_26\n              jump\t// in\n            tag_25:\n              mload(0x40)\n              dup1\n              swap2\n              sub\n              swap1\n              return\n                /* \"contracts/Storage.sol\":341:419  function retrive() public view returns(uint256) {... */\n            tag_7:\n              tag_27\n              tag_28\n              jump\t// in\n            tag_27:\n              mload(0x40)\n              tag_29\n              swap2\n              swap1\n              tag_13\n              jump\t// in\n            tag_29:\n              mload(0x40)\n              dup1\n              swap2\n              sub\n              swap1\n              return\n                /* \"contracts/Storage.sol\":206:255  mapping(string => uint256) public nameToFavNumber */\n            tag_11:\n              0x02\n              dup2\n              dup1\n              mload\n              0x20\n              dup2\n              add\n              dup3\n              add\n              dup1\n              mload\n              dup5\n              dup3\n              mstore\n              0x20\n              dup4\n              add\n              0x20\n              dup6\n              add\n              keccak256\n              dup2\n              dup4\n              mstore\n              dup1\n              swap6\n              pop\n              pop\n              pop\n              pop\n              pop\n              pop\n              0x00\n              swap2\n              pop\n              swap1\n              pop\n              sload\n              dup2\n              jump\t// out\n                /* \"contracts/Storage.sol\":262:335  function store(uint256 _number) public  {... */\n            tag_17:\n                /* \"contracts/Storage.sol\":321:328  _number */\n              dup1\n                /* \"contracts/Storage.sol\":312:318  number */\n              0x00\n                /* \"contracts/Storage.sol\":312:328  number = _number */\n              dup2\n              swap1\n              sstore\n              pop\n                /* \"contracts/Storage.sol\":262:335  function store(uint256 _number) public  {... */\n              pop\n              jump\t// out\n                /* \"contracts/Storage.sol\":425:593  function addPerson(string memory _name, uint256 _favNumber) public  {... */\n            tag_21:\n                /* \"contracts/Storage.sol\":503:509  people */\n              0x01\n                /* \"contracts/Storage.sol\":515:540  People(_favNumber, _name) */\n              mload(0x40)\n              dup1\n              0x40\n              add\n              0x40\n              mstore\n              dup1\n                /* \"contracts/Storage.sol\":522:532  _favNumber */\n              dup4\n                /* \"contracts/Storage.sol\":515:540  People(_favNumber, _name) */\n              dup2\n              mstore\n              0x20\n              add\n                /* \"contracts/Storage.sol\":534:539  _name */\n              dup5\n                /* \"contracts/Storage.sol\":515:540  People(_favNumber, _name) */\n              dup2\n              mstore\n              pop\n                /* \"contracts/Storage.sol\":503:541  people.push(People(_favNumber, _name)) */\n              swap1\n              dup1\n              0x01\n              dup2\n              sload\n              add\n              dup1\n              dup3\n              sstore\n              dup1\n              swap2\n              pop\n              pop\n              0x01\n              swap1\n              sub\n              swap1\n              0x00\n              mstore\n              keccak256(0x00, 0x20)\n              swap1\n              0x02\n              mul\n              add\n              0x00\n              swap1\n              swap2\n              swap1\n              swap2\n              swap1\n              swap2\n              pop\n              0x00\n              dup3\n              add\n              mload\n              dup2\n              0x00\n              add\n              sstore\n              0x20\n              dup3\n              add\n              mload\n              dup2\n              0x01\n              add\n              swap1\n              dup2\n              tag_33\n              swap2\n              swap1\n              tag_34\n              jump\t// in\n            tag_33:\n              pop\n              pop\n              pop\n                /* \"contracts/Storage.sol\":576:586  _favNumber */\n              dup1\n                /* \"contracts/Storage.sol\":551:566  nameToFavNumber */\n              0x02\n                /* \"contracts/Storage.sol\":567:572  _name */\n              dup4\n                /* \"contracts/Storage.sol\":551:573  nameToFavNumber[_name] */\n              mload(0x40)\n              tag_35\n              swap2\n              swap1\n              tag_36\n              jump\t// in\n            tag_35:\n              swap1\n              dup2\n              mstore\n              0x20\n              add\n              mload(0x40)\n              dup1\n              swap2\n              sub\n              swap1\n              keccak256\n                /* \"contracts/Storage.sol\":551:586  nameToFavNumber[_name] = _favNumber */\n              dup2\n              swap1\n              sstore\n              pop\n                /* \"contracts/Storage.sol\":425:593  function addPerson(string memory _name, uint256 _favNumber) public  {... */\n              pop\n              pop\n              jump\t// out\n                /* \"contracts/Storage.sol\":177:199  People[] public people */\n            tag_24:\n              0x01\n              dup2\n              dup2\n              sload\n              dup2\n              lt\n              tag_37\n              jumpi\n              0x00\n              dup1\n              revert\n            tag_37:\n              swap1\n              0x00\n              mstore\n              keccak256(0x00, 0x20)\n              swap1\n              0x02\n              mul\n              add\n              0x00\n              swap2\n              pop\n              swap1\n              pop\n              dup1\n              0x00\n              add\n              sload\n              swap1\n              dup1\n              0x01\n              add\n              dup1\n              sload\n              tag_39\n              swap1\n              tag_40\n              jump\t// in\n            tag_39:\n              dup1\n              0x1f\n              add\n              0x20\n              dup1\n              swap2\n              div\n              mul\n              0x20\n              add\n              mload(0x40)\n              swap1\n              dup2\n              add\n              0x40\n              mstore\n              dup1\n              swap3\n              swap2\n              swap1\n              dup2\n              dup2\n              mstore\n              0x20\n              add\n              dup3\n              dup1\n              sload\n              tag_41\n              swap1\n              tag_40\n              jump\t// in\n            tag_41:\n              dup1\n              iszero\n              tag_42\n              jumpi\n              dup1\n              0x1f\n              lt\n              tag_43\n              jumpi\n              0x0100\n              dup1\n              dup4\n              sload\n              div\n              mul\n              dup4\n              mstore\n              swap2\n              0x20\n              add\n              swap2\n              jump(tag_42)\n            tag_43:\n              dup3\n              add\n              swap2\n              swap1\n              0x00\n              mstore\n              keccak256(0x00, 0x20)\n              swap1\n            tag_44:\n              dup2\n              sload\n              dup2\n              mstore\n              swap1\n              0x01\n              add\n              swap1\n              0x20\n              add\n              dup1\n              dup4\n              gt\n              tag_44\n              jumpi\n              dup3\n              swap1\n              sub\n              0x1f\n              and\n              dup3\n              add\n              swap2\n            tag_42:\n              pop\n              pop\n              pop\n              pop\n              pop\n              swap1\n              pop\n              dup3\n              jump\t// out\n                /* \"contracts/Storage.sol\":341:419  function retrive() public view returns(uint256) {... */\n            tag_28:\n                /* \"contracts/Storage.sol\":380:387  uint256 */\n              0x00\n                /* \"contracts/Storage.sol\":406:412  number */\n              dup1\n              sload\n                /* \"contracts/Storage.sol\":399:412  return number */\n              swap1\n              pop\n                /* \"contracts/Storage.sol\":341:419  function retrive() public view returns(uint256) {... */\n              swap1\n              jump\t// out\n                /* \"#utility.yul\":7:82   */\n            tag_46:\n                /* \"#utility.yul\":40:46   */\n              0x00\n                /* \"#utility.yul\":73:75   */\n              0x40\n                /* \"#utility.yul\":67:76   */\n              mload\n                /* \"#utility.yul\":57:76   */\n              swap1\n              pop\n                /* \"#utility.yul\":7:82   */\n              swap1\n              jump\t// out\n                /* \"#utility.yul\":88:205   */\n            tag_47:\n                /* \"#utility.yul\":197:198   */\n              0x00\n                /* \"#utility.yul\":194:195   */\n              dup1\n                /* \"#utility.yul\":187:199   */\n              revert\n                /* \"#utility.yul\":211:328   */\n            tag_48:\n                /* \"#utility.yul\":320:321   */\n              0x00\n                /* \"#utility.yul\":317:318   */\n              dup1\n                /* \"#utility.yul\":310:322   */\n              revert\n                /* \"#utility.yul\":334:451   */\n            tag_49:\n                /* \"#utility.yul\":443:444   */\n              0x00\n                /* \"#utility.yul\":440:441   */\n              dup1\n                /* \"#utility.yul\":433:445   */\n              revert\n                /* \"#utility.yul\":457:574   */\n            tag_50:\n                /* \"#utility.yul\":566:567   */\n              0x00\n                /* \"#utility.yul\":563:564   */\n              dup1\n                /* \"#utility.yul\":556:568   */\n              revert\n                /* \"#utility.yul\":580:682   */\n            tag_51:\n                /* \"#utility.yul\":621:627   */\n              0x00\n                /* \"#utility.yul\":672:674   */\n              0x1f\n                /* \"#utility.yul\":668:675   */\n              not\n                /* \"#utility.yul\":663:665   */\n              0x1f\n                /* \"#utility.yul\":656:661   */\n              dup4\n                /* \"#utility.yul\":652:666   */\n              add\n                /* \"#utility.yul\":648:676   */\n              and\n                /* \"#utility.yul\":638:676   */\n              swap1\n              pop\n                /* \"#utility.yul\":580:682   */\n              swap2\n              swap1\n              pop\n              jump\t// out\n                /* \"#utility.yul\":688:868   */\n            tag_52:\n                /* \"#utility.yul\":736:813   */\n              0x4e487b7100000000000000000000000000000000000000000000000000000000\n                /* \"#utility.yul\":733:734   */\n              0x00\n                /* \"#utility.yul\":726:814   */\n              mstore\n                /* \"#utility.yul\":833:837   */\n              0x41\n                /* \"#utility.yul\":830:831   */\n              0x04\n                /* \"#utility.yul\":823:838   */\n              mstore\n                /* \"#utility.yul\":857:861   */\n              0x24\n                /* \"#utility.yul\":854:855   */\n              0x00\n                /* \"#utility.yul\":847:862   */\n              revert\n                /* \"#utility.yul\":874:1155   */\n            tag_53:\n                /* \"#utility.yul\":957:984   */\n              tag_94\n                /* \"#utility.yul\":979:983   */\n              dup3\n                /* \"#utility.yul\":957:984   */\n              tag_51\n              jump\t// in\n            tag_94:\n                /* \"#utility.yul\":949:955   */\n              dup2\n                /* \"#utility.yul\":945:985   */\n              add\n                /* \"#utility.yul\":1087:1093   */\n              dup2\n                /* \"#utility.yul\":1075:1085   */\n              dup2\n                /* \"#utility.yul\":1072:1094   */\n              lt\n                /* \"#utility.yul\":1051:1069   */\n              0xffffffffffffffff\n                /* \"#utility.yul\":1039:1049   */\n              dup3\n                /* \"#utility.yul\":1036:1070   */\n              gt\n                /* \"#utility.yul\":1033:1095   */\n              or\n                /* \"#utility.yul\":1030:1118   */\n              iszero\n              tag_95\n              jumpi\n                /* \"#utility.yul\":1098:1116   */\n              tag_96\n              tag_52\n              jump\t// in\n            tag_96:\n                /* \"#utility.yul\":1030:1118   */\n            tag_95:\n                /* \"#utility.yul\":1138:1148   */\n              dup1\n                /* \"#utility.yul\":1134:1136   */\n              0x40\n                /* \"#utility.yul\":1127:1149   */\n              mstore\n                /* \"#utility.yul\":917:1155   */\n              pop\n                /* \"#utility.yul\":874:1155   */\n              pop\n              pop\n              jump\t// out\n                /* \"#utility.yul\":1161:1290   */\n            tag_54:\n                /* \"#utility.yul\":1195:1201   */\n              0x00\n                /* \"#utility.yul\":1222:1242   */\n              tag_98\n              tag_46\n              jump\t// in\n            tag_98:\n                /* \"#utility.yul\":1212:1242   */\n              swap1\n              pop\n                /* \"#utility.yul\":1251:1284   */\n              tag_99\n                /* \"#utility.yul\":1279:1283   */\n              dup3\n                /* \"#utility.yul\":1271:1277   */\n              dup3\n                /* \"#utility.yul\":1251:1284   */\n              tag_53\n              jump\t// in\n            tag_99:\n                /* \"#utility.yul\":1161:1290   */\n              swap2\n              swap1\n              pop\n              jump\t// out\n                /* \"#utility.yul\":1296:1604   */\n            tag_55:\n                /* \"#utility.yul\":1358:1362   */\n              0x00\n                /* \"#utility.yul\":1448:1466   */\n              0xffffffffffffffff\n                /* \"#utility.yul\":1440:1446   */\n              dup3\n                /* \"#utility.yul\":1437:1467   */\n              gt\n                /* \"#utility.yul\":1434:1490   */\n              iszero\n              tag_101\n              jumpi\n                /* \"#utility.yul\":1470:1488   */\n              tag_102\n              tag_52\n              jump\t// in\n            tag_102:\n                /* \"#utility.yul\":1434:1490   */\n            tag_101:\n                /* \"#utility.yul\":1508:1537   */\n              tag_103\n                /* \"#utility.yul\":1530:1536   */\n              dup3\n                /* \"#utility.yul\":1508:1537   */\n              tag_51\n              jump\t// in\n            tag_103:\n                /* \"#utility.yul\":1500:1537   */\n              swap1\n              pop\n                /* \"#utility.yul\":1592:1596   */\n              0x20\n                /* \"#utility.yul\":1586:1590   */\n              dup2\n                /* \"#utility.yul\":1582:1597   */\n              add\n                /* \"#utility.yul\":1574:1597   */\n              swap1\n              pop\n                /* \"#utility.yul\":1296:1604   */\n              swap2\n              swap1\n              pop\n              jump\t// out\n                /* \"#utility.yul\":1610:1756   */\n            tag_56:\n                /* \"#utility.yul\":1707:1713   */\n              dup3\n                /* \"#utility.yul\":1702:1705   */\n              dup2\n                /* \"#utility.yul\":1697:1700   */\n              dup4\n                /* \"#utility.yul\":1684:1714   */\n              calldatacopy\n                /* \"#utility.yul\":1748:1749   */\n              0x00\n                /* \"#utility.yul\":1739:1745   */\n              dup4\n                /* \"#utility.yul\":1734:1737   */\n              dup4\n                /* \"#utility.yul\":1730:1746   */\n              add\n                /* \"#utility.yul\":1723:1750   */\n              mstore\n                /* \"#utility.yul\":1610:1756   */\n              pop\n              pop\n              pop\n              jump\t// out\n                /* \"#utility.yul\":1762:2187   */\n            tag_57:\n                /* \"#utility.yul\":1840:1845   */\n              0x00\n                /* \"#utility.yul\":1865:1931   */\n              tag_106\n                /* \"#utility.yul\":1881:1930   */\n              tag_107\n                /* \"#utility.yul\":1923:1929   */\n              dup5\n                /* \"#utility.yul\":1881:1930   */\n              tag_55\n              jump\t// in\n            tag_107:\n                /* \"#utility.yul\":1865:1931   */\n              tag_54\n              jump\t// in\n            tag_106:\n                /* \"#utility.yul\":1856:1931   */\n              swap1\n              pop\n                /* \"#utility.yul\":1954:1960   */\n              dup3\n                /* \"#utility.yul\":1947:1952   */\n              dup2\n                /* \"#utility.yul\":1940:1961   */\n              mstore\n                /* \"#utility.yul\":1992:1996   */\n              0x20\n                /* \"#utility.yul\":1985:1990   */\n              dup2\n                /* \"#utility.yul\":1981:1997   */\n              add\n                /* \"#utility.yul\":2030:2033   */\n              dup5\n                /* \"#utility.yul\":2021:2027   */\n              dup5\n                /* \"#utility.yul\":2016:2019   */\n              dup5\n                /* \"#utility.yul\":2012:2028   */\n              add\n                /* \"#utility.yul\":2009:2034   */\n              gt\n                /* \"#utility.yul\":2006:2118   */\n              iszero\n              tag_108\n              jumpi\n                /* \"#utility.yul\":2037:2116   */\n              tag_109\n              tag_50\n              jump\t// in\n            tag_109:\n                /* \"#utility.yul\":2006:2118   */\n            tag_108:\n                /* \"#utility.yul\":2127:2181   */\n              tag_110\n                /* \"#utility.yul\":2174:2180   */\n              dup5\n                /* \"#utility.yul\":2169:2172   */\n              dup3\n                /* \"#utility.yul\":2164:2167   */\n              dup6\n                /* \"#utility.yul\":2127:2181   */\n              tag_56\n              jump\t// in\n            tag_110:\n                /* \"#utility.yul\":1846:2187   */\n              pop\n                /* \"#utility.yul\":1762:2187   */\n              swap4\n              swap3\n              pop\n              pop\n              pop\n              jump\t// out\n                /* \"#utility.yul\":2207:2547   */\n            tag_58:\n                /* \"#utility.yul\":2263:2268   */\n              0x00\n                /* \"#utility.yul\":2312:2315   */\n              dup3\n                /* \"#utility.yul\":2305:2309   */\n              0x1f\n                /* \"#utility.yul\":2297:2303   */\n              dup4\n                /* \"#utility.yul\":2293:2310   */\n              add\n                /* \"#utility.yul\":2289:2316   */\n              slt\n                /* \"#utility.yul\":2279:2401   */\n              tag_112\n              jumpi\n                /* \"#utility.yul\":2320:2399   */\n              tag_113\n              tag_49\n              jump\t// in\n            tag_113:\n                /* \"#utility.yul\":2279:2401   */\n            tag_112:\n                /* \"#utility.yul\":2437:2443   */\n              dup2\n                /* \"#utility.yul\":2424:2444   */\n              calldataload\n                /* \"#utility.yul\":2462:2541   */\n              tag_114\n                /* \"#utility.yul\":2537:2540   */\n              dup5\n                /* \"#utility.yul\":2529:2535   */\n              dup3\n                /* \"#utility.yul\":2522:2526   */\n              0x20\n                /* \"#utility.yul\":2514:2520   */\n              dup7\n                /* \"#utility.yul\":2510:2527   */\n              add\n                /* \"#utility.yul\":2462:2541   */\n              tag_57\n              jump\t// in\n            tag_114:\n                /* \"#utility.yul\":2453:2541   */\n              swap2\n              pop\n                /* \"#utility.yul\":2269:2547   */\n              pop\n                /* \"#utility.yul\":2207:2547   */\n              swap3\n              swap2\n              pop\n              pop\n              jump\t// out\n                /* \"#utility.yul\":2553:3062   */\n            tag_10:\n                /* \"#utility.yul\":2622:2628   */\n              0x00\n                /* \"#utility.yul\":2671:2673   */\n              0x20\n                /* \"#utility.yul\":2659:2668   */\n              dup3\n                /* \"#utility.yul\":2650:2657   */\n              dup5\n                /* \"#utility.yul\":2646:2669   */\n              sub\n                /* \"#utility.yul\":2642:2674   */\n              slt\n                /* \"#utility.yul\":2639:2758   */\n              iszero\n              tag_116\n              jumpi\n                /* \"#utility.yul\":2677:2756   */\n              tag_117\n              tag_47\n              jump\t// in\n            tag_117:\n                /* \"#utility.yul\":2639:2758   */\n            tag_116:\n                /* \"#utility.yul\":2825:2826   */\n              0x00\n                /* \"#utility.yul\":2814:2823   */\n              dup3\n                /* \"#utility.yul\":2810:2827   */\n              add\n                /* \"#utility.yul\":2797:2828   */\n              calldataload\n                /* \"#utility.yul\":2855:2873   */\n              0xffffffffffffffff\n                /* \"#utility.yul\":2847:2853   */\n              dup2\n                /* \"#utility.yul\":2844:2874   */\n              gt\n                /* \"#utility.yul\":2841:2958   */\n              iszero\n              tag_118\n              jumpi\n                /* \"#utility.yul\":2877:2956   */\n              tag_119\n              tag_48\n              jump\t// in\n            tag_119:\n                /* \"#utility.yul\":2841:2958   */\n            tag_118:\n                /* \"#utility.yul\":2982:3045   */\n              tag_120\n                /* \"#utility.yul\":3037:3044   */\n              dup5\n                /* \"#utility.yul\":3028:3034   */\n              dup3\n                /* \"#utility.yul\":3017:3026   */\n              dup6\n                /* \"#utility.yul\":3013:3035   */\n              add\n                /* \"#utility.yul\":2982:3045   */\n              tag_58\n              jump\t// in\n            tag_120:\n                /* \"#utility.yul\":2972:3045   */\n              swap2\n              pop\n                /* \"#utility.yul\":2768:3055   */\n              pop\n                /* \"#utility.yul\":2553:3062   */\n              swap3\n              swap2\n              pop\n              pop\n              jump\t// out\n                /* \"#utility.yul\":3068:3145   */\n            tag_59:\n                /* \"#utility.yul\":3105:3112   */\n              0x00\n                /* \"#utility.yul\":3134:3139   */\n              dup2\n                /* \"#utility.yul\":3123:3139   */\n              swap1\n              pop\n                /* \"#utility.yul\":3068:3145   */\n              swap2\n              swap1\n              pop\n              jump\t// out\n                /* \"#utility.yul\":3151:3269   */\n            tag_60:\n                /* \"#utility.yul\":3238:3262   */\n              tag_123\n                /* \"#utility.yul\":3256:3261   */\n              dup2\n                /* \"#utility.yul\":3238:3262   */\n              tag_59\n              jump\t// in\n            tag_123:\n                /* \"#utility.yul\":3233:3236   */\n              dup3\n                /* \"#utility.yul\":3226:3263   */\n              mstore\n                /* \"#utility.yul\":3151:3269   */\n              pop\n              pop\n              jump\t// out\n                /* \"#utility.yul\":3275:3497   */\n            tag_13:\n                /* \"#utility.yul\":3368:3372   */\n              0x00\n                /* \"#utility.yul\":3406:3408   */\n              0x20\n                /* \"#utility.yul\":3395:3404   */\n              dup3\n                /* \"#utility.yul\":3391:3409   */\n              add\n                /* \"#utility.yul\":3383:3409   */\n              swap1\n              pop\n                /* \"#utility.yul\":3419:3490   */\n              tag_125\n                /* \"#utility.yul\":3487:3488   */\n              0x00\n                /* \"#utility.yul\":3476:3485   */\n              dup4\n                /* \"#utility.yul\":3472:3489   */\n              add\n                /* \"#utility.yul\":3463:3469   */\n              dup5\n                /* \"#utility.yul\":3419:3490   */\n              tag_60\n              jump\t// in\n            tag_125:\n                /* \"#utility.yul\":3275:3497   */\n              swap3\n              swap2\n              pop\n              pop\n              jump\t// out\n                /* \"#utility.yul\":3503:3625   */\n            tag_61:\n                /* \"#utility.yul\":3576:3600   */\n              tag_127\n                /* \"#utility.yul\":3594:3599   */\n              dup2\n                /* \"#utility.yul\":3576:3600   */\n              tag_59\n              jump\t// in\n            tag_127:\n                /* \"#utility.yul\":3569:3574   */\n              dup2\n                /* \"#utility.yul\":3566:3601   */\n              eq\n                /* \"#utility.yul\":3556:3619   */\n              tag_128\n              jumpi\n                /* \"#utility.yul\":3615:3616   */\n              0x00\n                /* \"#utility.yul\":3612:3613   */\n              dup1\n                /* \"#utility.yul\":3605:3617   */\n              revert\n                /* \"#utility.yul\":3556:3619   */\n            tag_128:\n                /* \"#utility.yul\":3503:3625   */\n              pop\n              jump\t// out\n                /* \"#utility.yul\":3631:3770   */\n            tag_62:\n                /* \"#utility.yul\":3677:3682   */\n              0x00\n                /* \"#utility.yul\":3715:3721   */\n              dup2\n                /* \"#utility.yul\":3702:3722   */\n              calldataload\n                /* \"#utility.yul\":3693:3722   */\n              swap1\n              pop\n                /* \"#utility.yul\":3731:3764   */\n              tag_130\n                /* \"#utility.yul\":3758:3763   */\n              dup2\n                /* \"#utility.yul\":3731:3764   */\n              tag_61\n              jump\t// in\n            tag_130:\n                /* \"#utility.yul\":3631:3770   */\n              swap3\n              swap2\n              pop\n              pop\n              jump\t// out\n                /* \"#utility.yul\":3776:4105   */\n            tag_16:\n                /* \"#utility.yul\":3835:3841   */\n              0x00\n                /* \"#utility.yul\":3884:3886   */\n              0x20\n                /* \"#utility.yul\":3872:3881   */\n              dup3\n                /* \"#utility.yul\":3863:3870   */\n              dup5\n                /* \"#utility.yul\":3859:3882   */\n              sub\n                /* \"#utility.yul\":3855:3887   */\n              slt\n                /* \"#utility.yul\":3852:3971   */\n              iszero\n              tag_132\n              jumpi\n                /* \"#utility.yul\":3890:3969   */\n              tag_133\n              tag_47\n              jump\t// in\n            tag_133:\n                /* \"#utility.yul\":3852:3971   */\n            tag_132:\n                /* \"#utility.yul\":4010:4011   */\n              0x00\n                /* \"#utility.yul\":4035:4088   */\n              tag_134\n                /* \"#utility.yul\":4080:4087   */\n              dup5\n                /* \"#utility.yul\":4071:4077   */\n              dup3\n                /* \"#utility.yul\":4060:4069   */\n              dup6\n                /* \"#utility.yul\":4056:4078   */\n              add\n                /* \"#utility.yul\":4035:4088   */\n              tag_62\n              jump\t// in\n            tag_134:\n                /* \"#utility.yul\":4025:4088   */\n              swap2\n              pop\n                /* \"#utility.yul\":3981:4098   */\n              pop\n                /* \"#utility.yul\":3776:4105   */\n              swap3\n              swap2\n              pop\n              pop\n              jump\t// out\n                /* \"#utility.yul\":4111:4765   */\n            tag_20:\n                /* \"#utility.yul\":4189:4195   */\n              0x00\n                /* \"#utility.yul\":4197:4203   */\n              dup1\n                /* \"#utility.yul\":4246:4248   */\n              0x40\n                /* \"#utility.yul\":4234:4243   */\n              dup4\n                /* \"#utility.yul\":4225:4232   */\n              dup6\n                /* \"#utility.yul\":4221:4244   */\n              sub\n                /* \"#utility.yul\":4217:4249   */\n              slt\n                /* \"#utility.yul\":4214:4333   */\n              iszero\n              tag_136\n              jumpi\n                /* \"#utility.yul\":4252:4331   */\n              tag_137\n              tag_47\n              jump\t// in\n            tag_137:\n                /* \"#utility.yul\":4214:4333   */\n            tag_136:\n                /* \"#utility.yul\":4400:4401   */\n              0x00\n                /* \"#utility.yul\":4389:4398   */\n              dup4\n                /* \"#utility.yul\":4385:4402   */\n              add\n                /* \"#utility.yul\":4372:4403   */\n              calldataload\n                /* \"#utility.yul\":4430:4448   */\n              0xffffffffffffffff\n                /* \"#utility.yul\":4422:4428   */\n              dup2\n                /* \"#utility.yul\":4419:4449   */\n              gt\n                /* \"#utility.yul\":4416:4533   */\n              iszero\n              tag_138\n              jumpi\n                /* \"#utility.yul\":4452:4531   */\n              tag_139\n              tag_48\n              jump\t// in\n            tag_139:\n                /* \"#utility.yul\":4416:4533   */\n            tag_138:\n                /* \"#utility.yul\":4557:4620   */\n              tag_140\n                /* \"#utility.yul\":4612:4619   */\n              dup6\n                /* \"#utility.yul\":4603:4609   */\n              dup3\n                /* \"#utility.yul\":4592:4601   */\n              dup7\n                /* \"#utility.yul\":4588:4610   */\n              add\n                /* \"#utility.yul\":4557:4620   */\n              tag_58\n              jump\t// in\n            tag_140:\n                /* \"#utility.yul\":4547:4620   */\n              swap3\n              pop\n                /* \"#utility.yul\":4343:4630   */\n              pop\n                /* \"#utility.yul\":4669:4671   */\n              0x20\n                /* \"#utility.yul\":4695:4748   */\n              tag_141\n                /* \"#utility.yul\":4740:4747   */\n              dup6\n                /* \"#utility.yul\":4731:4737   */\n              dup3\n                /* \"#utility.yul\":4720:4729   */\n              dup7\n                /* \"#utility.yul\":4716:4738   */\n              add\n                /* \"#utility.yul\":4695:4748   */\n              tag_62\n              jump\t// in\n            tag_141:\n                /* \"#utility.yul\":4685:4748   */\n              swap2\n              pop\n                /* \"#utility.yul\":4640:4758   */\n              pop\n                /* \"#utility.yul\":4111:4765   */\n              swap3\n              pop\n              swap3\n              swap1\n              pop\n              jump\t// out\n                /* \"#utility.yul\":4771:4870   */\n            tag_63:\n                /* \"#utility.yul\":4823:4829   */\n              0x00\n                /* \"#utility.yul\":4857:4862   */\n              dup2\n                /* \"#utility.yul\":4851:4863   */\n              mload\n                /* \"#utility.yul\":4841:4863   */\n              swap1\n              pop\n                /* \"#utility.yul\":4771:4870   */\n              swap2\n              swap1\n              pop\n              jump\t// out\n                /* \"#utility.yul\":4876:5045   */\n            tag_64:\n                /* \"#utility.yul\":4960:4971   */\n              0x00\n                /* \"#utility.yul\":4994:5000   */\n              dup3\n                /* \"#utility.yul\":4989:4992   */\n              dup3\n                /* \"#utility.yul\":4982:5001   */\n              mstore\n                /* \"#utility.yul\":5034:5038   */\n              0x20\n                /* \"#utility.yul\":5029:5032   */\n              dup3\n                /* \"#utility.yul\":5025:5039   */\n              add\n                /* \"#utility.yul\":5010:5039   */\n              swap1\n              pop\n                /* \"#utility.yul\":4876:5045   */\n              swap3\n              swap2\n              pop\n              pop\n              jump\t// out\n                /* \"#utility.yul\":5051:5297   */\n            tag_65:\n                /* \"#utility.yul\":5132:5133   */\n              0x00\n                /* \"#utility.yul\":5142:5255   */\n            tag_145:\n                /* \"#utility.yul\":5156:5162   */\n              dup4\n                /* \"#utility.yul\":5153:5154   */\n              dup2\n                /* \"#utility.yul\":5150:5163   */\n              lt\n                /* \"#utility.yul\":5142:5255   */\n              iszero\n              tag_147\n              jumpi\n                /* \"#utility.yul\":5241:5242   */\n              dup1\n                /* \"#utility.yul\":5236:5239   */\n              dup3\n                /* \"#utility.yul\":5232:5243   */\n              add\n                /* \"#utility.yul\":5226:5244   */\n              mload\n                /* \"#utility.yul\":5222:5223   */\n              dup2\n                /* \"#utility.yul\":5217:5220   */\n              dup5\n                /* \"#utility.yul\":5213:5224   */\n              add\n                /* \"#utility.yul\":5206:5245   */\n              mstore\n                /* \"#utility.yul\":5178:5180   */\n              0x20\n                /* \"#utility.yul\":5175:5176   */\n              dup2\n                /* \"#utility.yul\":5171:5181   */\n              add\n                /* \"#utility.yul\":5166:5181   */\n              swap1\n              pop\n                /* \"#utility.yul\":5142:5255   */\n              jump(tag_145)\n            tag_147:\n                /* \"#utility.yul\":5289:5290   */\n              0x00\n                /* \"#utility.yul\":5280:5286   */\n              dup5\n                /* \"#utility.yul\":5275:5278   */\n              dup5\n                /* \"#utility.yul\":5271:5287   */\n              add\n                /* \"#utility.yul\":5264:5291   */\n              mstore\n                /* \"#utility.yul\":5113:5297   */\n              pop\n                /* \"#utility.yul\":5051:5297   */\n              pop\n              pop\n              pop\n              jump\t// out\n                /* \"#utility.yul\":5303:5680   */\n            tag_66:\n                /* \"#utility.yul\":5391:5394   */\n              0x00\n                /* \"#utility.yul\":5419:5458   */\n              tag_149\n                /* \"#utility.yul\":5452:5457   */\n              dup3\n                /* \"#utility.yul\":5419:5458   */\n              tag_63\n              jump\t// in\n            tag_149:\n                /* \"#utility.yul\":5474:5545   */\n              tag_150\n                /* \"#utility.yul\":5538:5544   */\n              dup2\n                /* \"#utility.yul\":5533:5536   */\n              dup6\n                /* \"#utility.yul\":5474:5545   */\n              tag_64\n              jump\t// in\n            tag_150:\n                /* \"#utility.yul\":5467:5545   */\n              swap4\n              pop\n                /* \"#utility.yul\":5554:5619   */\n              tag_151\n                /* \"#utility.yul\":5612:5618   */\n              dup2\n                /* \"#utility.yul\":5607:5610   */\n              dup6\n                /* \"#utility.yul\":5600:5604   */\n              0x20\n                /* \"#utility.yul\":5593:5598   */\n              dup7\n                /* \"#utility.yul\":5589:5605   */\n              add\n                /* \"#utility.yul\":5554:5619   */\n              tag_65\n              jump\t// in\n            tag_151:\n                /* \"#utility.yul\":5644:5673   */\n              tag_152\n                /* \"#utility.yul\":5666:5672   */\n              dup2\n                /* \"#utility.yul\":5644:5673   */\n              tag_51\n              jump\t// in\n            tag_152:\n                /* \"#utility.yul\":5639:5642   */\n              dup5\n                /* \"#utility.yul\":5635:5674   */\n              add\n                /* \"#utility.yul\":5628:5674   */\n              swap2\n              pop\n                /* \"#utility.yul\":5395:5680   */\n              pop\n                /* \"#utility.yul\":5303:5680   */\n              swap3\n              swap2\n              pop\n              pop\n              jump\t// out\n                /* \"#utility.yul\":5686:6109   */\n            tag_26:\n                /* \"#utility.yul\":5827:5831   */\n              0x00\n                /* \"#utility.yul\":5865:5867   */\n              0x40\n                /* \"#utility.yul\":5854:5863   */\n              dup3\n                /* \"#utility.yul\":5850:5868   */\n              add\n                /* \"#utility.yul\":5842:5868   */\n              swap1\n              pop\n                /* \"#utility.yul\":5878:5949   */\n              tag_154\n                /* \"#utility.yul\":5946:5947   */\n              0x00\n                /* \"#utility.yul\":5935:5944   */\n              dup4\n                /* \"#utility.yul\":5931:5948   */\n              add\n                /* \"#utility.yul\":5922:5928   */\n              dup6\n                /* \"#utility.yul\":5878:5949   */\n              tag_60\n              jump\t// in\n            tag_154:\n                /* \"#utility.yul\":5996:6005   */\n              dup2\n                /* \"#utility.yul\":5990:5994   */\n              dup2\n                /* \"#utility.yul\":5986:6006   */\n              sub\n                /* \"#utility.yul\":5981:5983   */\n              0x20\n                /* \"#utility.yul\":5970:5979   */\n              dup4\n                /* \"#utility.yul\":5966:5984   */\n              add\n                /* \"#utility.yul\":5959:6007   */\n              mstore\n                /* \"#utility.yul\":6024:6102   */\n              tag_155\n                /* \"#utility.yul\":6097:6101   */\n              dup2\n                /* \"#utility.yul\":6088:6094   */\n              dup5\n                /* \"#utility.yul\":6024:6102   */\n              tag_66\n              jump\t// in\n            tag_155:\n                /* \"#utility.yul\":6016:6102   */\n              swap1\n              pop\n                /* \"#utility.yul\":5686:6109   */\n              swap4\n              swap3\n              pop\n              pop\n              pop\n              jump\t// out\n                /* \"#utility.yul\":6115:6295   */\n            tag_67:\n                /* \"#utility.yul\":6163:6240   */\n              0x4e487b7100000000000000000000000000000000000000000000000000000000\n                /* \"#utility.yul\":6160:6161   */\n              0x00\n                /* \"#utility.yul\":6153:6241   */\n              mstore\n                /* \"#utility.yul\":6260:6264   */\n              0x22\n                /* \"#utility.yul\":6257:6258   */\n              0x04\n                /* \"#utility.yul\":6250:6265   */\n              mstore\n                /* \"#utility.yul\":6284:6288   */\n              0x24\n                /* \"#utility.yul\":6281:6282   */\n              0x00\n                /* \"#utility.yul\":6274:6289   */\n              revert\n                /* \"#utility.yul\":6301:6621   */\n            tag_40:\n                /* \"#utility.yul\":6345:6351   */\n              0x00\n                /* \"#utility.yul\":6382:6383   */\n              0x02\n                /* \"#utility.yul\":6376:6380   */\n              dup3\n                /* \"#utility.yul\":6372:6384   */\n              div\n                /* \"#utility.yul\":6362:6384   */\n              swap1\n              pop\n                /* \"#utility.yul\":6429:6430   */\n              0x01\n                /* \"#utility.yul\":6423:6427   */\n              dup3\n                /* \"#utility.yul\":6419:6431   */\n              and\n                /* \"#utility.yul\":6450:6468   */\n              dup1\n                /* \"#utility.yul\":6440:6521   */\n              tag_158\n              jumpi\n                /* \"#utility.yul\":6506:6510   */\n              0x7f\n                /* \"#utility.yul\":6498:6504   */\n              dup3\n                /* \"#utility.yul\":6494:6511   */\n              and\n                /* \"#utility.yul\":6484:6511   */\n              swap2\n              pop\n                /* \"#utility.yul\":6440:6521   */\n            tag_158:\n                /* \"#utility.yul\":6568:6570   */\n              0x20\n                /* \"#utility.yul\":6560:6566   */\n              dup3\n                /* \"#utility.yul\":6557:6571   */\n              lt\n                /* \"#utility.yul\":6537:6555   */\n              dup2\n                /* \"#utility.yul\":6534:6572   */\n              sub\n                /* \"#utility.yul\":6531:6615   */\n              tag_159\n              jumpi\n                /* \"#utility.yul\":6587:6605   */\n              tag_160\n              tag_67\n              jump\t// in\n            tag_160:\n                /* \"#utility.yul\":6531:6615   */\n            tag_159:\n                /* \"#utility.yul\":6352:6621   */\n              pop\n                /* \"#utility.yul\":6301:6621   */\n              swap2\n              swap1\n              pop\n              jump\t// out\n                /* \"#utility.yul\":6627:6768   */\n            tag_68:\n                /* \"#utility.yul\":6676:6680   */\n              0x00\n                /* \"#utility.yul\":6699:6702   */\n              dup2\n                /* \"#utility.yul\":6691:6702   */\n              swap1\n              pop\n                /* \"#utility.yul\":6722:6725   */\n              dup2\n                /* \"#utility.yul\":6719:6720   */\n              0x00\n                /* \"#utility.yul\":6712:6726   */\n              mstore\n                /* \"#utility.yul\":6756:6760   */\n              0x20\n                /* \"#utility.yul\":6753:6754   */\n              0x00\n                /* \"#utility.yul\":6743:6761   */\n              keccak256\n                /* \"#utility.yul\":6735:6761   */\n              swap1\n              pop\n                /* \"#utility.yul\":6627:6768   */\n              swap2\n              swap1\n              pop\n              jump\t// out\n                /* \"#utility.yul\":6774:6867   */\n            tag_69:\n                /* \"#utility.yul\":6811:6817   */\n              0x00\n                /* \"#utility.yul\":6858:6860   */\n              0x20\n                /* \"#utility.yul\":6853:6855   */\n              0x1f\n                /* \"#utility.yul\":6846:6851   */\n              dup4\n                /* \"#utility.yul\":6842:6856   */\n              add\n                /* \"#utility.yul\":6838:6861   */\n              div\n                /* \"#utility.yul\":6828:6861   */\n              swap1\n              pop\n                /* \"#utility.yul\":6774:6867   */\n              swap2\n              swap1\n              pop\n              jump\t// out\n                /* \"#utility.yul\":6873:6980   */\n            tag_70:\n                /* \"#utility.yul\":6917:6925   */\n              0x00\n                /* \"#utility.yul\":6967:6972   */\n              dup3\n                /* \"#utility.yul\":6961:6965   */\n              dup3\n                /* \"#utility.yul\":6957:6973   */\n              shl\n                /* \"#utility.yul\":6936:6973   */\n              swap1\n              pop\n                /* \"#utility.yul\":6873:6980   */\n              swap3\n              swap2\n              pop\n              pop\n              jump\t// out\n                /* \"#utility.yul\":6986:7379   */\n            tag_71:\n                /* \"#utility.yul\":7055:7061   */\n              0x00\n                /* \"#utility.yul\":7105:7106   */\n              0x08\n                /* \"#utility.yul\":7093:7103   */\n              dup4\n                /* \"#utility.yul\":7089:7107   */\n              mul\n                /* \"#utility.yul\":7128:7225   */\n              tag_165\n                /* \"#utility.yul\":7158:7224   */\n              0xffffffffffffffffffffffffffffffffffffffffffffffffffffffffffffffff\n                /* \"#utility.yul\":7147:7156   */\n              dup3\n                /* \"#utility.yul\":7128:7225   */\n              tag_70\n              jump\t// in\n            tag_165:\n                /* \"#utility.yul\":7246:7285   */\n              tag_166\n                /* \"#utility.yul\":7276:7284   */\n              dup7\n                /* \"#utility.yul\":7265:7274   */\n              dup4\n                /* \"#utility.yul\":7246:7285   */\n              tag_70\n              jump\t// in\n            tag_166:\n                /* \"#utility.yul\":7234:7285   */\n              swap6\n              pop\n                /* \"#utility.yul\":7318:7322   */\n              dup1\n                /* \"#utility.yul\":7314:7323   */\n              not\n                /* \"#utility.yul\":7307:7312   */\n              dup5\n                /* \"#utility.yul\":7303:7324   */\n              and\n                /* \"#utility.yul\":7294:7324   */\n              swap4\n              pop\n                /* \"#utility.yul\":7367:7371   */\n              dup1\n                /* \"#utility.yul\":7357:7365   */\n              dup7\n                /* \"#utility.yul\":7353:7372   */\n              and\n                /* \"#utility.yul\":7346:7351   */\n              dup5\n                /* \"#utility.yul\":7343:7373   */\n              or\n                /* \"#utility.yul\":7333:7373   */\n              swap3\n              pop\n                /* \"#utility.yul\":7062:7379   */\n              pop\n              pop\n                /* \"#utility.yul\":6986:7379   */\n              swap4\n              swap3\n              pop\n              pop\n              pop\n              jump\t// out\n                /* \"#utility.yul\":7385:7445   */\n            tag_72:\n                /* \"#utility.yul\":7413:7416   */\n              0x00\n                /* \"#utility.yul\":7434:7439   */\n              dup2\n                /* \"#utility.yul\":7427:7439   */\n              swap1\n              pop\n                /* \"#utility.yul\":7385:7445   */\n              swap2\n              swap1\n              pop\n              jump\t// out\n                /* \"#utility.yul\":7451:7593   */\n            tag_73:\n                /* \"#utility.yul\":7501:7510   */\n              0x00\n                /* \"#utility.yul\":7534:7587   */\n              tag_169\n                /* \"#utility.yul\":7552:7586   */\n              tag_170\n                /* \"#utility.yul\":7561:7585   */\n              tag_171\n                /* \"#utility.yul\":7579:7584   */\n              dup5\n                /* \"#utility.yul\":7561:7585   */\n              tag_59\n              jump\t// in\n            tag_171:\n                /* \"#utility.yul\":7552:7586   */\n              tag_72\n              jump\t// in\n            tag_170:\n                /* \"#utility.yul\":7534:7587   */\n              tag_59\n              jump\t// in\n            tag_169:\n                /* \"#utility.yul\":7521:7587   */\n              swap1\n              pop\n                /* \"#utility.yul\":7451:7593   */\n              swap2\n              swap1\n              pop\n              jump\t// out\n                /* \"#utility.yul\":7599:7674   */\n            tag_74:\n                /* \"#utility.yul\":7642:7645   */\n              0x00\n                /* \"#utility.yul\":7663:7668   */\n              dup2\n                /* \"#utility.yul\":7656:7668   */\n              swap1\n              pop\n                /* \"#utility.yul\":7599:7674   */\n              swap2\n              swap1\n              pop\n              jump\t// out\n                /* \"#utility.yul\":7680:7949   */\n            tag_75:\n                /* \"#utility.yul\":7790:7829   */\n              tag_174\n                /* \"#utility.yul\":7821:7828   */\n              dup4\n                /* \"#utility.yul\":7790:7829   */\n              tag_73\n              jump\t// in\n            tag_174:\n                /* \"#utility.yul\":7851:7942   */\n              tag_175\n                /* \"#utility.yul\":7900:7941   */\n              tag_176\n                /* \"#utility.yul\":7924:7940   */\n              dup3\n                /* \"#utility.yul\":7900:7941   */\n              tag_74\n              jump\t// in\n            tag_176:\n                /* \"#utility.yul\":7892:7898   */\n              dup5\n                /* \"#utility.yul\":7885:7889   */\n              dup5\n                /* \"#utility.yul\":7879:7890   */\n              sload\n                /* \"#utility.yul\":7851:7942   */\n              tag_71\n              jump\t// in\n            tag_175:\n                /* \"#utility.yul\":7845:7849   */\n              dup3\n                /* \"#utility.yul\":7838:7943   */\n              sstore\n                /* \"#utility.yul\":7756:7949   */\n              pop\n                /* \"#utility.yul\":7680:7949   */\n              pop\n              pop\n              pop\n              jump\t// out\n                /* \"#utility.yul\":7955:8028   */\n            tag_76:\n                /* \"#utility.yul\":8000:8003   */\n              0x00\n                /* \"#utility.yul\":7955:8028   */\n              swap1\n              jump\t// out\n                /* \"#utility.yul\":8034:8223   */\n            tag_77:\n                /* \"#utility.yul\":8111:8143   */\n              tag_179\n              tag_76\n              jump\t// in\n            tag_179:\n                /* \"#utility.yul\":8152:8217   */\n              tag_180\n                /* \"#utility.yul\":8210:8216   */\n              dup2\n                /* \"#utility.yul\":8202:8208   */\n              dup5\n                /* \"#utility.yul\":8196:8200   */\n              dup5\n                /* \"#utility.yul\":8152:8217   */\n              tag_75\n              jump\t// in\n            tag_180:\n                /* \"#utility.yul\":8087:8223   */\n              pop\n                /* \"#utility.yul\":8034:8223   */\n              pop\n              pop\n              jump\t// out\n                /* \"#utility.yul\":8229:8415   */\n            tag_78:\n                /* \"#utility.yul\":8289:8409   */\n            tag_182:\n                /* \"#utility.yul\":8306:8309   */\n              dup2\n                /* \"#utility.yul\":8299:8304   */\n              dup2\n                /* \"#utility.yul\":8296:8310   */\n              lt\n                /* \"#utility.yul\":8289:8409   */\n              iszero\n              tag_184\n              jumpi\n                /* \"#utility.yul\":8360:8399   */\n              tag_185\n                /* \"#utility.yul\":8397:8398   */\n              0x00\n                /* \"#utility.yul\":8390:8395   */\n              dup3\n                /* \"#utility.yul\":8360:8399   */\n              tag_77\n              jump\t// in\n            tag_185:\n                /* \"#utility.yul\":8333:8334   */\n              0x01\n                /* \"#utility.yul\":8326:8331   */\n              dup2\n                /* \"#utility.yul\":8322:8335   */\n              add\n                /* \"#utility.yul\":8313:8335   */\n              swap1\n              pop\n                /* \"#utility.yul\":8289:8409   */\n              jump(tag_182)\n            tag_184:\n                /* \"#utility.yul\":8229:8415   */\n              pop\n              pop\n              jump\t// out\n                /* \"#utility.yul\":8421:8964   */\n            tag_79:\n                /* \"#utility.yul\":8522:8524   */\n              0x1f\n                /* \"#utility.yul\":8517:8520   */\n              dup3\n                /* \"#utility.yul\":8514:8525   */\n              gt\n                /* \"#utility.yul\":8511:8957   */\n              iszero\n              tag_187\n              jumpi\n                /* \"#utility.yul\":8556:8594   */\n              tag_188\n                /* \"#utility.yul\":8588:8593   */\n              dup2\n                /* \"#utility.yul\":8556:8594   */\n              tag_68\n              jump\t// in\n            tag_188:\n                /* \"#utility.yul\":8640:8669   */\n              tag_189\n                /* \"#utility.yul\":8658:8668   */\n              dup5\n                /* \"#utility.yul\":8640:8669   */\n              tag_69\n              jump\t// in\n            tag_189:\n                /* \"#utility.yul\":8630:8638   */\n              dup2\n                /* \"#utility.yul\":8626:8670   */\n              add\n                /* \"#utility.yul\":8823:8825   */\n              0x20\n                /* \"#utility.yul\":8811:8821   */\n              dup6\n                /* \"#utility.yul\":8808:8826   */\n              lt\n                /* \"#utility.yul\":8805:8854   */\n              iszero\n              tag_190\n              jumpi\n                /* \"#utility.yul\":8844:8852   */\n              dup2\n                /* \"#utility.yul\":8829:8852   */\n              swap1\n              pop\n                /* \"#utility.yul\":8805:8854   */\n            tag_190:\n                /* \"#utility.yul\":8867:8947   */\n              tag_191\n                /* \"#utility.yul\":8923:8945   */\n              tag_192\n                /* \"#utility.yul\":8941:8944   */\n              dup6\n                /* \"#utility.yul\":8923:8945   */\n              tag_69\n              jump\t// in\n            tag_192:\n                /* \"#utility.yul\":8913:8921   */\n              dup4\n                /* \"#utility.yul\":8909:8946   */\n              add\n                /* \"#utility.yul\":8896:8907   */\n              dup3\n                /* \"#utility.yul\":8867:8947   */\n              tag_78\n              jump\t// in\n            tag_191:\n                /* \"#utility.yul\":8526:8957   */\n              pop\n              pop\n                /* \"#utility.yul\":8511:8957   */\n            tag_187:\n                /* \"#utility.yul\":8421:8964   */\n              pop\n              pop\n              pop\n              jump\t// out\n                /* \"#utility.yul\":8970:9087   */\n            tag_80:\n                /* \"#utility.yul\":9024:9032   */\n              0x00\n                /* \"#utility.yul\":9074:9079   */\n              dup3\n                /* \"#utility.yul\":9068:9072   */\n              dup3\n                /* \"#utility.yul\":9064:9080   */\n              shr\n                /* \"#utility.yul\":9043:9080   */\n              swap1\n              pop\n                /* \"#utility.yul\":8970:9087   */\n              swap3\n              swap2\n              pop\n              pop\n              jump\t// out\n                /* \"#utility.yul\":9093:9262   */\n            tag_81:\n                /* \"#utility.yul\":9137:9143   */\n              0x00\n                /* \"#utility.yul\":9170:9221   */\n              tag_195\n                /* \"#utility.yul\":9218:9219   */\n              0x00\n                /* \"#utility.yul\":9214:9220   */\n              not\n                /* \"#utility.yul\":9206:9211   */\n              dup5\n                /* \"#utility.yul\":9203:9204   */\n              0x08\n                /* \"#utility.yul\":9199:9212   */\n              mul\n                /* \"#utility.yul\":9170:9221   */\n              tag_80\n              jump\t// in\n            tag_195:\n                /* \"#utility.yul\":9166:9222   */\n              not\n                /* \"#utility.yul\":9251:9255   */\n              dup1\n                /* \"#utility.yul\":9245:9249   */\n              dup4\n                /* \"#utility.yul\":9241:9256   */\n              and\n                /* \"#utility.yul\":9231:9256   */\n              swap2\n              pop\n                /* \"#utility.yul\":9144:9262   */\n              pop\n                /* \"#utility.yul\":9093:9262   */\n              swap3\n              swap2\n              pop\n              pop\n              jump\t// out\n                /* \"#utility.yul\":9267:9562   */\n            tag_82:\n                /* \"#utility.yul\":9343:9347   */\n              0x00\n                /* \"#utility.yul\":9489:9518   */\n              tag_197\n                /* \"#utility.yul\":9514:9517   */\n              dup4\n                /* \"#utility.yul\":9508:9512   */\n              dup4\n                /* \"#utility.yul\":9489:9518   */\n              tag_81\n              jump\t// in\n            tag_197:\n                /* \"#utility.yul\":9481:9518   */\n              swap2\n              pop\n                /* \"#utility.yul\":9551:9554   */\n              dup3\n                /* \"#utility.yul\":9548:9549   */\n              0x02\n                /* \"#utility.yul\":9544:9555   */\n              mul\n                /* \"#utility.yul\":9538:9542   */\n              dup3\n                /* \"#utility.yul\":9535:9556   */\n              or\n                /* \"#utility.yul\":9527:9556   */\n              swap1\n              pop\n                /* \"#utility.yul\":9267:9562   */\n              swap3\n              swap2\n              pop\n              pop\n              jump\t// out\n                /* \"#utility.yul\":9567:10962   */\n            tag_34:\n                /* \"#utility.yul\":9684:9721   */\n              tag_199\n                /* \"#utility.yul\":9717:9720   */\n              dup3\n                /* \"#utility.yul\":9684:9721   */\n              tag_63\n              jump\t// in\n            tag_199:\n                /* \"#utility.yul\":9786:9804   */\n              0xffffffffffffffff\n                /* \"#utility.yul\":9778:9784   */\n              dup2\n                /* \"#utility.yul\":9775:9805   */\n              gt\n                /* \"#utility.yul\":9772:9828   */\n              iszero\n              tag_200\n              jumpi\n                /* \"#utility.yul\":9808:9826   */\n              tag_201\n              tag_52\n              jump\t// in\n            tag_201:\n                /* \"#utility.yul\":9772:9828   */\n            tag_200:\n                /* \"#utility.yul\":9852:9890   */\n              tag_202\n                /* \"#utility.yul\":9884:9888   */\n              dup3\n                /* \"#utility.yul\":9878:9889   */\n              sload\n                /* \"#utility.yul\":9852:9890   */\n              tag_40\n              jump\t// in\n            tag_202:\n                /* \"#utility.yul\":9937:10004   */\n              tag_203\n                /* \"#utility.yul\":9997:10003   */\n              dup3\n                /* \"#utility.yul\":9989:9995   */\n              dup3\n                /* \"#utility.yul\":9983:9987   */\n              dup6\n                /* \"#utility.yul\":9937:10004   */\n              tag_79\n              jump\t// in\n            tag_203:\n                /* \"#utility.yul\":10031:10032   */\n              0x00\n                /* \"#utility.yul\":10055:10059   */\n              0x20\n                /* \"#utility.yul\":10042:10059   */\n              swap1\n              pop\n                /* \"#utility.yul\":10087:10089   */\n              0x1f\n                /* \"#utility.yul\":10079:10085   */\n              dup4\n                /* \"#utility.yul\":10076:10090   */\n              gt\n                /* \"#utility.yul\":10104:10105   */\n              0x01\n                /* \"#utility.yul\":10099:10717   */\n              dup2\n              eq\n              tag_205\n              jumpi\n                /* \"#utility.yul\":10761:10762   */\n              0x00\n                /* \"#utility.yul\":10778:10784   */\n              dup5\n                /* \"#utility.yul\":10775:10852   */\n              iszero\n              tag_206\n              jumpi\n                /* \"#utility.yul\":10827:10836   */\n              dup3\n                /* \"#utility.yul\":10822:10825   */\n              dup8\n                /* \"#utility.yul\":10818:10837   */\n              add\n                /* \"#utility.yul\":10812:10838   */\n              mload\n                /* \"#utility.yul\":10803:10838   */\n              swap1\n              pop\n                /* \"#utility.yul\":10775:10852   */\n            tag_206:\n                /* \"#utility.yul\":10878:10945   */\n              tag_207\n                /* \"#utility.yul\":10938:10944   */\n              dup6\n                /* \"#utility.yul\":10931:10936   */\n              dup3\n                /* \"#utility.yul\":10878:10945   */\n              tag_82\n              jump\t// in\n            tag_207:\n                /* \"#utility.yul\":10872:10876   */\n              dup7\n                /* \"#utility.yul\":10865:10946   */\n              sstore\n                /* \"#utility.yul\":10734:10956   */\n              pop\n                /* \"#utility.yul\":10069:10956   */\n              jump(tag_204)\n                /* \"#utility.yul\":10099:10717   */\n            tag_205:\n                /* \"#utility.yul\":10151:10155   */\n              0x1f\n                /* \"#utility.yul\":10147:10156   */\n              not\n                /* \"#utility.yul\":10139:10145   */\n              dup5\n                /* \"#utility.yul\":10135:10157   */\n              and\n                /* \"#utility.yul\":10185:10222   */\n              tag_208\n                /* \"#utility.yul\":10217:10221   */\n              dup7\n                /* \"#utility.yul\":10185:10222   */\n              tag_68\n              jump\t// in\n            tag_208:\n                /* \"#utility.yul\":10244:10245   */\n              0x00\n                /* \"#utility.yul\":10258:10466   */\n            tag_209:\n                /* \"#utility.yul\":10272:10279   */\n              dup3\n                /* \"#utility.yul\":10269:10270   */\n              dup2\n                /* \"#utility.yul\":10266:10280   */\n              lt\n                /* \"#utility.yul\":10258:10466   */\n              iszero\n              tag_211\n              jumpi\n                /* \"#utility.yul\":10351:10360   */\n              dup5\n                /* \"#utility.yul\":10346:10349   */\n              dup10\n                /* \"#utility.yul\":10342:10361   */\n              add\n                /* \"#utility.yul\":10336:10362   */\n              mload\n                /* \"#utility.yul\":10328:10334   */\n              dup3\n                /* \"#utility.yul\":10321:10363   */\n              sstore\n                /* \"#utility.yul\":10402:10403   */\n              0x01\n                /* \"#utility.yul\":10394:10400   */\n              dup3\n                /* \"#utility.yul\":10390:10404   */\n              add\n                /* \"#utility.yul\":10380:10404   */\n              swap2\n              pop\n                /* \"#utility.yul\":10449:10451   */\n              0x20\n                /* \"#utility.yul\":10438:10447   */\n              dup6\n                /* \"#utility.yul\":10434:10452   */\n              add\n                /* \"#utility.yul\":10421:10452   */\n              swap5\n              pop\n                /* \"#utility.yul\":10295:10299   */\n              0x20\n                /* \"#utility.yul\":10292:10293   */\n              dup2\n                /* \"#utility.yul\":10288:10300   */\n              add\n                /* \"#utility.yul\":10283:10300   */\n              swap1\n              pop\n                /* \"#utility.yul\":10258:10466   */\n              jump(tag_209)\n            tag_211:\n                /* \"#utility.yul\":10494:10500   */\n              dup7\n                /* \"#utility.yul\":10485:10492   */\n              dup4\n                /* \"#utility.yul\":10482:10501   */\n              lt\n                /* \"#utility.yul\":10479:10658   */\n              iszero\n              tag_212\n              jumpi\n                /* \"#utility.yul\":10552:10561   */\n              dup5\n                /* \"#utility.yul\":10547:10550   */\n              dup10\n                /* \"#utility.yul\":10543:10562   */\n              add\n                /* \"#utility.yul\":10537:10563   */\n              mload\n                /* \"#utility.yul\":10595:10643   */\n              tag_213\n                /* \"#utility.yul\":10637:10641   */\n              0x1f\n                /* \"#utility.yul\":10629:10635   */\n              dup10\n                /* \"#utility.yul\":10625:10642   */\n              and\n                /* \"#utility.yul\":10614:10623   */\n              dup3\n                /* \"#utility.yul\":10595:10643   */\n              tag_81\n              jump\t// in\n            tag_213:\n                /* \"#utility.yul\":10587:10593   */\n              dup4\n                /* \"#utility.yul\":10580:10644   */\n              sstore\n                /* \"#utility.yul\":10502:10658   */\n              pop\n                /* \"#utility.yul\":10479:10658   */\n            tag_212:\n                /* \"#utility.yul\":10704:10705   */\n              0x01\n                /* \"#utility.yul\":10700:10701   */\n              0x02\n                /* \"#utility.yul\":10692:10698   */\n              dup9\n                /* \"#utility.yul\":10688:10702   */\n              mul\n                /* \"#utility.yul\":10684:10706   */\n              add\n                /* \"#utility.yul\":10678:10682   */\n              dup9\n                /* \"#utility.yul\":10671:10707   */\n              sstore\n                /* \"#utility.yul\":10106:10717   */\n              pop\n              pop\n              pop\n                /* \"#utility.yul\":10069:10956   */\n            tag_204:\n              pop\n                /* \"#utility.yul\":9659:10962   */\n              pop\n              pop\n              pop\n                /* \"#utility.yul\":9567:10962   */\n              pop\n              pop\n              jump\t// out\n                /* \"#utility.yul\":10968:11116   */\n            tag_83:\n                /* \"#utility.yul\":11070:11081   */\n              0x00\n                /* \"#utility.yul\":11107:11110   */\n              dup2\n                /* \"#utility.yul\":11092:11110   */\n              swap1\n              pop\n                /* \"#utility.yul\":10968:11116   */\n              swap3\n              swap2\n              pop\n              pop\n              jump\t// out\n                /* \"#utility.yul\":11122:11512   */\n            tag_84:\n                /* \"#utility.yul\":11228:11231   */\n              0x00\n                /* \"#utility.yul\":11256:11295   */\n              tag_216\n                /* \"#utility.yul\":11289:11294   */\n              dup3\n                /* \"#utility.yul\":11256:11295   */\n              tag_63\n              jump\t// in\n            tag_216:\n                /* \"#utility.yul\":11311:11400   */\n              tag_217\n                /* \"#utility.yul\":11393:11399   */\n              dup2\n                /* \"#utility.yul\":11388:11391   */\n              dup6\n                /* \"#utility.yul\":11311:11400   */\n              tag_83\n              jump\t// in\n            tag_217:\n                /* \"#utility.yul\":11304:11400   */\n              swap4\n              pop\n                /* \"#utility.yul\":11409:11474   */\n              tag_218\n                /* \"#utility.yul\":11467:11473   */\n              dup2\n                /* \"#utility.yul\":11462:11465   */\n              dup6\n                /* \"#utility.yul\":11455:11459   */\n              0x20\n                /* \"#utility.yul\":11448:11453   */\n              dup7\n                /* \"#utility.yul\":11444:11460   */\n              add\n                /* \"#utility.yul\":11409:11474   */\n              tag_65\n              jump\t// in\n            tag_218:\n                /* \"#utility.yul\":11499:11505   */\n              dup1\n                /* \"#utility.yul\":11494:11497   */\n              dup5\n                /* \"#utility.yul\":11490:11506   */\n              add\n                /* \"#utility.yul\":11483:11506   */\n              swap2\n              pop\n                /* \"#utility.yul\":11232:11512   */\n              pop\n                /* \"#utility.yul\":11122:11512   */\n              swap3\n              swap2\n              pop\n              pop\n              jump\t// out\n                /* \"#utility.yul\":11518:11793   */\n            tag_36:\n                /* \"#utility.yul\":11650:11653   */\n              0x00\n                /* \"#utility.yul\":11672:11767   */\n              tag_220\n                /* \"#utility.yul\":11763:11766   */\n              dup3\n                /* \"#utility.yul\":11754:11760   */\n              dup5\n                /* \"#utility.yul\":11672:11767   */\n              tag_84\n              jump\t// in\n            tag_220:\n                /* \"#utility.yul\":11665:11767   */\n              swap2\n              pop\n                /* \"#utility.yul\":11784:11787   */\n              dup2\n                /* \"#utility.yul\":11777:11787   */\n              swap1\n              pop\n                /* \"#utility.yul\":11518:11793   */\n              swap3\n              swap2\n              pop\n              pop\n              jump\t// out\n\n            auxdata: 0xa2646970667358221220fe75e818950a68e9f591f82285846fd2b7e788193a31b91135292db526b2a2cb64736f6c63430008180033\n        }\n    }\n\n    auxdata: 0xa2646970667358221220cc8b19e45443a4768b07d758e851256f1e61fd278d034215528f14f8a60353e564736f6c63430008180033\n}\n",
				"bytecode": {
					"linkReferences": {},
					"object": "608060405234801561001057600080fd5b50610e86806100206000396000f3fe608060405234801561001057600080fd5b506004361061004c5760003560e01c806340d66b3b1461005157806364591bf11461005b5780636e97897e1461008b5780639507d39a146100a7575b600080fd5b6100596100d7565b005b61007560048036038101906100709190610353565b61016a565b60405161008291906103ff565b60405180910390f35b6100a560048036038101906100a0919061041a565b6101a9565b005b6100c160048036038101906100bc9190610353565b610256565b6040516100ce9190610469565b60405180910390f35b60006040516100e59061030b565b604051809103906000f080158015610101573d6000803e3d6000fd5b5090506000819080600181540180825580915050600190039060005260206000200160009091909190916101000a81548173ffffffffffffffffffffffffffffffffffffffff021916908373ffffffffffffffffffffffffffffffffffffffff16021790555050565b6000818154811061017a57600080fd5b906000526020600020016000915054906101000a900473ffffffffffffffffffffffffffffffffffffffff1681565b600082815481106101bd576101bc610484565b5b9060005260206000200160009054906101000a900473ffffffffffffffffffffffffffffffffffffffff1673ffffffffffffffffffffffffffffffffffffffff16636057361d826040518263ffffffff1660e01b81526004016102209190610469565b600060405180830381600087803b15801561023a57600080fd5b505af115801561024e573d6000803e3d6000fd5b505050505050565b600080828154811061026b5761026a610484565b5b9060005260206000200160009054906101000a900473ffffffffffffffffffffffffffffffffffffffff1673ffffffffffffffffffffffffffffffffffffffff1663a6b7fc5b6040518163ffffffff1660e01b8152600401602060405180830381865afa1580156102e0573d6000803e3d6000fd5b505050506040513d601f19601f8201168201806040525081019061030491906104c8565b9050919050565b61095b806104f683390190565b600080fd5b6000819050919050565b6103308161031d565b811461033b57600080fd5b50565b60008135905061034d81610327565b92915050565b60006020828403121561036957610368610318565b5b60006103778482850161033e565b91505092915050565b600073ffffffffffffffffffffffffffffffffffffffff82169050919050565b6000819050919050565b60006103c56103c06103bb84610380565b6103a0565b610380565b9050919050565b60006103d7826103aa565b9050919050565b60006103e9826103cc565b9050919050565b6103f9816103de565b82525050565b600060208201905061041460008301846103f0565b92915050565b6000806040838503121561043157610430610318565b5b600061043f8582860161033e565b92505060206104508582860161033e565b9150509250929050565b6104638161031d565b82525050565b600060208201905061047e600083018461045a565b92915050565b7f4e487b7100000000000000000000000000000000000000000000000000000000600052603260045260246000fd5b6000815190506104c281610327565b92915050565b6000602082840312156104de576104dd610318565b5b60006104ec848285016104b3565b9150509291505056fe608060405234801561001057600080fd5b5061093b806100206000396000f3fe608060405234801561001057600080fd5b50600436106100575760003560e01c806343ec8f471461005c5780636057361d1461008c5780636f760f41146100a85780639e7a13ad146100c4578063a6b7fc5b146100f5575b600080fd5b610076600480360381019061007191906103f3565b610113565b6040516100839190610455565b60405180910390f35b6100a660048036038101906100a1919061049c565b610141565b005b6100c260048036038101906100bd91906104c9565b61014b565b005b6100de60048036038101906100d9919061049c565b6101d4565b6040516100ec9291906105a4565b60405180910390f35b6100fd610290565b60405161010a9190610455565b60405180910390f35b6002818051602081018201805184825260208301602085012081835280955050505050506000915090505481565b8060008190555050565b600160405180604001604052808381526020018481525090806001815401808255809150506001900390600052602060002090600202016000909190919091506000820151816000015560208201518160010190816101aa91906107e0565b505050806002836040516101be91906108ee565b9081526020016040518091039020819055505050565b600181815481106101e457600080fd5b906000526020600020906002020160009150905080600001549080600101805461020d90610603565b80601f016020809104026020016040519081016040528092919081815260200182805461023990610603565b80156102865780601f1061025b57610100808354040283529160200191610286565b820191906000526020600020905b81548152906001019060200180831161026957829003601f168201915b5050505050905082565b60008054905090565b6000604051905090565b600080fd5b600080fd5b600080fd5b600080fd5b6000601f19601f8301169050919050565b7f4e487b7100000000000000000000000000000000000000000000000000000000600052604160045260246000fd5b610300826102b7565b810181811067ffffffffffffffff8211171561031f5761031e6102c8565b5b80604052505050565b6000610332610299565b905061033e82826102f7565b919050565b600067ffffffffffffffff82111561035e5761035d6102c8565b5b610367826102b7565b9050602081019050919050565b82818337600083830152505050565b600061039661039184610343565b610328565b9050828152602081018484840111156103b2576103b16102b2565b5b6103bd848285610374565b509392505050565b600082601f8301126103da576103d96102ad565b5b81356103ea848260208601610383565b91505092915050565b600060208284031215610409576104086102a3565b5b600082013567ffffffffffffffff811115610427576104266102a8565b5b610433848285016103c5565b91505092915050565b6000819050919050565b61044f8161043c565b82525050565b600060208201905061046a6000830184610446565b92915050565b6104798161043c565b811461048457600080fd5b50565b60008135905061049681610470565b92915050565b6000602082840312156104b2576104b16102a3565b5b60006104c084828501610487565b91505092915050565b600080604083850312156104e0576104df6102a3565b5b600083013567ffffffffffffffff8111156104fe576104fd6102a8565b5b61050a858286016103c5565b925050602061051b85828601610487565b9150509250929050565b600081519050919050565b600082825260208201905092915050565b60005b8381101561055f578082015181840152602081019050610544565b60008484015250505050565b600061057682610525565b6105808185610530565b9350610590818560208601610541565b610599816102b7565b840191505092915050565b60006040820190506105b96000830185610446565b81810360208301526105cb818461056b565b90509392505050565b7f4e487b7100000000000000000000000000000000000000000000000000000000600052602260045260246000fd5b6000600282049050600182168061061b57607f821691505b60208210810361062e5761062d6105d4565b5b50919050565b60008190508160005260206000209050919050565b60006020601f8301049050919050565b600082821b905092915050565b6000600883026106967fffffffffffffffffffffffffffffffffffffffffffffffffffffffffffffffff82610659565b6106a08683610659565b95508019841693508086168417925050509392505050565b6000819050919050565b60006106dd6106d86106d38461043c565b6106b8565b61043c565b9050919050565b6000819050919050565b6106f7836106c2565b61070b610703826106e4565b848454610666565b825550505050565b600090565b610720610713565b61072b8184846106ee565b505050565b5b8181101561074f57610744600082610718565b600181019050610731565b5050565b601f8211156107945761076581610634565b61076e84610649565b8101602085101561077d578190505b61079161078985610649565b830182610730565b50505b505050565b600082821c905092915050565b60006107b760001984600802610799565b1980831691505092915050565b60006107d083836107a6565b9150826002028217905092915050565b6107e982610525565b67ffffffffffffffff811115610802576108016102c8565b5b61080c8254610603565b610817828285610753565b600060209050601f83116001811461084a5760008415610838578287015190505b61084285826107c4565b8655506108aa565b601f19841661085886610634565b60005b828110156108805784890151825560018201915060208501945060208101905061085b565b8683101561089d5784890151610899601f8916826107a6565b8355505b6001600288020188555050505b505050505050565b600081905092915050565b60006108c882610525565b6108d281856108b2565b93506108e2818560208601610541565b80840191505092915050565b60006108fa82846108bd565b91508190509291505056fea2646970667358221220fe75e818950a68e9f591f82285846fd2b7e788193a31b91135292db526b2a2cb64736f6c63430008180033a2646970667358221220cc8b19e45443a4768b07d758e851256f1e61fd278d034215528f14f8a60353e564736f6c63430008180033",
					"opcodes": "PUSH1 0x80 PUSH1 0x40 MSTORE CALLVALUE DUP1 ISZERO PUSH2 0x10 JUMPI PUSH1 0x0 DUP1 REVERT JUMPDEST POP PUSH2 0xE86 DUP1 PUSH2 0x20 PUSH1 0x0 CODECOPY PUSH1 0x0 RETURN INVALID PUSH1 0x80 PUSH1 0x40 MSTORE CALLVALUE DUP1 ISZERO PUSH2 0x10 JUMPI PUSH1 0x0 DUP1 REVERT JUMPDEST POP PUSH1 0x4 CALLDATASIZE LT PUSH2 0x4C JUMPI PUSH1 0x0 CALLDATALOAD PUSH1 0xE0 SHR DUP1 PUSH4 0x40D66B3B EQ PUSH2 0x51 JUMPI DUP1 PUSH4 0x64591BF1 EQ PUSH2 0x5B JUMPI DUP1 PUSH4 0x6E97897E EQ PUSH2 0x8B JUMPI DUP1 PUSH4 0x9507D39A EQ PUSH2 0xA7 JUMPI JUMPDEST PUSH1 0x0 DUP1 REVERT JUMPDEST PUSH2 0x59 PUSH2 0xD7 JUMP JUMPDEST STOP JUMPDEST PUSH2 0x75 PUSH1 0x4 DUP1 CALLDATASIZE SUB DUP2 ADD SWAP1 PUSH2 0x70 SWAP2 SWAP1 PUSH2 0x353 JUMP JUMPDEST PUSH2 0x16A JUMP JUMPDEST PUSH1 0x40 MLOAD PUSH2 0x82 SWAP2 SWAP1 PUSH2 0x3FF JUMP JUMPDEST PUSH1 0x40 MLOAD DUP1 SWAP2 SUB SWAP1 RETURN JUMPDEST PUSH2 0xA5 PUSH1 0x4 DUP1 CALLDATASIZE SUB DUP2 ADD SWAP1 PUSH2 0xA0 SWAP2 SWAP1 PUSH2 0x41A JUMP JUMPDEST PUSH2 0x1A9 JUMP JUMPDEST STOP JUMPDEST PUSH2 0xC1 PUSH1 0x4 DUP1 CALLDATASIZE SUB DUP2 ADD SWAP1 PUSH2 0xBC SWAP2 SWAP1 PUSH2 0x353 JUMP JUMPDEST PUSH2 0x256 JUMP JUMPDEST PUSH1 0x40 MLOAD PUSH2 0xCE SWAP2 SWAP1 PUSH2 0x469 JUMP JUMPDEST PUSH1 0x40 MLOAD DUP1 SWAP2 SUB SWAP1 RETURN JUMPDEST PUSH1 0x0 PUSH1 0x40 MLOAD PUSH2 0xE5 SWAP1 PUSH2 0x30B JUMP JUMPDEST PUSH1 0x40 MLOAD DUP1 SWAP2 SUB SWAP1 PUSH1 0x0 CREATE DUP1 ISZERO DUP1 ISZERO PUSH2 0x101 JUMPI RETURNDATASIZE PUSH1 0x0 DUP1 RETURNDATACOPY RETURNDATASIZE PUSH1 0x0 REVERT JUMPDEST POP SWAP1 POP PUSH1 0x0 DUP2 SWAP1 DUP1 PUSH1 0x1 DUP2 SLOAD ADD DUP1 DUP3 SSTORE DUP1 SWAP2 POP POP PUSH1 0x1 SWAP1 SUB SWAP1 PUSH1 0x0 MSTORE PUSH1 0x20 PUSH1 0x0 KECCAK256 ADD PUSH1 0x0 SWAP1 SWAP2 SWAP1 SWAP2 SWAP1 SWAP2 PUSH2 0x100 EXP DUP2 SLOAD DUP2 PUSH20 0xFFFFFFFFFFFFFFFFFFFFFFFFFFFFFFFFFFFFFFFF MUL NOT AND SWAP1 DUP4 PUSH20 0xFFFFFFFFFFFFFFFFFFFFFFFFFFFFFFFFFFFFFFFF AND MUL OR SWAP1 SSTORE POP POP JUMP JUMPDEST PUSH1 0x0 DUP2 DUP2 SLOAD DUP2 LT PUSH2 0x17A JUMPI PUSH1 0x0 DUP1 REVERT JUMPDEST SWAP1 PUSH1 0x0 MSTORE PUSH1 0x20 PUSH1 0x0 KECCAK256 ADD PUSH1 0x0 SWAP2 POP SLOAD SWAP1 PUSH2 0x100 EXP SWAP1 DIV PUSH20 0xFFFFFFFFFFFFFFFFFFFFFFFFFFFFFFFFFFFFFFFF AND DUP2 JUMP JUMPDEST PUSH1 0x0 DUP3 DUP2 SLOAD DUP2 LT PUSH2 0x1BD JUMPI PUSH2 0x1BC PUSH2 0x484 JUMP JUMPDEST JUMPDEST SWAP1 PUSH1 0x0 MSTORE PUSH1 0x20 PUSH1 0x0 KECCAK256 ADD PUSH1 0x0 SWAP1 SLOAD SWAP1 PUSH2 0x100 EXP SWAP1 DIV PUSH20 0xFFFFFFFFFFFFFFFFFFFFFFFFFFFFFFFFFFFFFFFF AND PUSH20 0xFFFFFFFFFFFFFFFFFFFFFFFFFFFFFFFFFFFFFFFF AND PUSH4 0x6057361D DUP3 PUSH1 0x40 MLOAD DUP3 PUSH4 0xFFFFFFFF AND PUSH1 0xE0 SHL DUP2 MSTORE PUSH1 0x4 ADD PUSH2 0x220 SWAP2 SWAP1 PUSH2 0x469 JUMP JUMPDEST PUSH1 0x0 PUSH1 0x40 MLOAD DUP1 DUP4 SUB DUP2 PUSH1 0x0 DUP8 DUP1 EXTCODESIZE ISZERO DUP1 ISZERO PUSH2 0x23A JUMPI PUSH1 0x0 DUP1 REVERT JUMPDEST POP GAS CALL ISZERO DUP1 ISZERO PUSH2 0x24E JUMPI RETURNDATASIZE PUSH1 0x0 DUP1 RETURNDATACOPY RETURNDATASIZE PUSH1 0x0 REVERT JUMPDEST POP POP POP POP POP POP JUMP JUMPDEST PUSH1 0x0 DUP1 DUP3 DUP2 SLOAD DUP2 LT PUSH2 0x26B JUMPI PUSH2 0x26A PUSH2 0x484 JUMP JUMPDEST JUMPDEST SWAP1 PUSH1 0x0 MSTORE PUSH1 0x20 PUSH1 0x0 KECCAK256 ADD PUSH1 0x0 SWAP1 SLOAD SWAP1 PUSH2 0x100 EXP SWAP1 DIV PUSH20 0xFFFFFFFFFFFFFFFFFFFFFFFFFFFFFFFFFFFFFFFF AND PUSH20 0xFFFFFFFFFFFFFFFFFFFFFFFFFFFFFFFFFFFFFFFF AND PUSH4 0xA6B7FC5B PUSH1 0x40 MLOAD DUP2 PUSH4 0xFFFFFFFF AND PUSH1 0xE0 SHL DUP2 MSTORE PUSH1 0x4 ADD PUSH1 0x20 PUSH1 0x40 MLOAD DUP1 DUP4 SUB DUP2 DUP7 GAS STATICCALL ISZERO DUP1 ISZERO PUSH2 0x2E0 JUMPI RETURNDATASIZE PUSH1 0x0 DUP1 RETURNDATACOPY RETURNDATASIZE PUSH1 0x0 REVERT JUMPDEST POP POP POP POP PUSH1 0x40 MLOAD RETURNDATASIZE PUSH1 0x1F NOT PUSH1 0x1F DUP3 ADD AND DUP3 ADD DUP1 PUSH1 0x40 MSTORE POP DUP2 ADD SWAP1 PUSH2 0x304 SWAP2 SWAP1 PUSH2 0x4C8 JUMP JUMPDEST SWAP1 POP SWAP2 SWAP1 POP JUMP JUMPDEST PUSH2 0x95B DUP1 PUSH2 0x4F6 DUP4 CODECOPY ADD SWAP1 JUMP JUMPDEST PUSH1 0x0 DUP1 REVERT JUMPDEST PUSH1 0x0 DUP2 SWAP1 POP SWAP2 SWAP1 POP JUMP JUMPDEST PUSH2 0x330 DUP2 PUSH2 0x31D JUMP JUMPDEST DUP2 EQ PUSH2 0x33B JUMPI PUSH1 0x0 DUP1 REVERT JUMPDEST POP JUMP JUMPDEST PUSH1 0x0 DUP2 CALLDATALOAD SWAP1 POP PUSH2 0x34D DUP2 PUSH2 0x327 JUMP JUMPDEST SWAP3 SWAP2 POP POP JUMP JUMPDEST PUSH1 0x0 PUSH1 0x20 DUP3 DUP5 SUB SLT ISZERO PUSH2 0x369 JUMPI PUSH2 0x368 PUSH2 0x318 JUMP JUMPDEST JUMPDEST PUSH1 0x0 PUSH2 0x377 DUP5 DUP3 DUP6 ADD PUSH2 0x33E JUMP JUMPDEST SWAP2 POP POP SWAP3 SWAP2 POP POP JUMP JUMPDEST PUSH1 0x0 PUSH20 0xFFFFFFFFFFFFFFFFFFFFFFFFFFFFFFFFFFFFFFFF DUP3 AND SWAP1 POP SWAP2 SWAP1 POP JUMP JUMPDEST PUSH1 0x0 DUP2 SWAP1 POP SWAP2 SWAP1 POP JUMP JUMPDEST PUSH1 0x0 PUSH2 0x3C5 PUSH2 0x3C0 PUSH2 0x3BB DUP5 PUSH2 0x380 JUMP JUMPDEST PUSH2 0x3A0 JUMP JUMPDEST PUSH2 0x380 JUMP JUMPDEST SWAP1 POP SWAP2 SWAP1 POP JUMP JUMPDEST PUSH1 0x0 PUSH2 0x3D7 DUP3 PUSH2 0x3AA JUMP JUMPDEST SWAP1 POP SWAP2 SWAP1 POP JUMP JUMPDEST PUSH1 0x0 PUSH2 0x3E9 DUP3 PUSH2 0x3CC JUMP JUMPDEST SWAP1 POP SWAP2 SWAP1 POP JUMP JUMPDEST PUSH2 0x3F9 DUP2 PUSH2 0x3DE JUMP JUMPDEST DUP3 MSTORE POP POP JUMP JUMPDEST PUSH1 0x0 PUSH1 0x20 DUP3 ADD SWAP1 POP PUSH2 0x414 PUSH1 0x0 DUP4 ADD DUP5 PUSH2 0x3F0 JUMP JUMPDEST SWAP3 SWAP2 POP POP JUMP JUMPDEST PUSH1 0x0 DUP1 PUSH1 0x40 DUP4 DUP6 SUB SLT ISZERO PUSH2 0x431 JUMPI PUSH2 0x430 PUSH2 0x318 JUMP JUMPDEST JUMPDEST PUSH1 0x0 PUSH2 0x43F DUP6 DUP3 DUP7 ADD PUSH2 0x33E JUMP JUMPDEST SWAP3 POP POP PUSH1 0x20 PUSH2 0x450 DUP6 DUP3 DUP7 ADD PUSH2 0x33E JUMP JUMPDEST SWAP2 POP POP SWAP3 POP SWAP3 SWAP1 POP JUMP JUMPDEST PUSH2 0x463 DUP2 PUSH2 0x31D JUMP JUMPDEST DUP3 MSTORE POP POP JUMP JUMPDEST PUSH1 0x0 PUSH1 0x20 DUP3 ADD SWAP1 POP PUSH2 0x47E PUSH1 0x0 DUP4 ADD DUP5 PUSH2 0x45A JUMP JUMPDEST SWAP3 SWAP2 POP POP JUMP JUMPDEST PUSH32 0x4E487B7100000000000000000000000000000000000000000000000000000000 PUSH1 0x0 MSTORE PUSH1 0x32 PUSH1 0x4 MSTORE PUSH1 0x24 PUSH1 0x0 REVERT JUMPDEST PUSH1 0x0 DUP2 MLOAD SWAP1 POP PUSH2 0x4C2 DUP2 PUSH2 0x327 JUMP JUMPDEST SWAP3 SWAP2 POP POP JUMP JUMPDEST PUSH1 0x0 PUSH1 0x20 DUP3 DUP5 SUB SLT ISZERO PUSH2 0x4DE JUMPI PUSH2 0x4DD PUSH2 0x318 JUMP JUMPDEST JUMPDEST PUSH1 0x0 PUSH2 0x4EC DUP5 DUP3 DUP6 ADD PUSH2 0x4B3 JUMP JUMPDEST SWAP2 POP POP SWAP3 SWAP2 POP POP JUMP INVALID PUSH1 0x80 PUSH1 0x40 MSTORE CALLVALUE DUP1 ISZERO PUSH2 0x10 JUMPI PUSH1 0x0 DUP1 REVERT JUMPDEST POP PUSH2 0x93B DUP1 PUSH2 0x20 PUSH1 0x0 CODECOPY PUSH1 0x0 RETURN INVALID PUSH1 0x80 PUSH1 0x40 MSTORE CALLVALUE DUP1 ISZERO PUSH2 0x10 JUMPI PUSH1 0x0 DUP1 REVERT JUMPDEST POP PUSH1 0x4 CALLDATASIZE LT PUSH2 0x57 JUMPI PUSH1 0x0 CALLDATALOAD PUSH1 0xE0 SHR DUP1 PUSH4 0x43EC8F47 EQ PUSH2 0x5C JUMPI DUP1 PUSH4 0x6057361D EQ PUSH2 0x8C JUMPI DUP1 PUSH4 0x6F760F41 EQ PUSH2 0xA8 JUMPI DUP1 PUSH4 0x9E7A13AD EQ PUSH2 0xC4 JUMPI DUP1 PUSH4 0xA6B7FC5B EQ PUSH2 0xF5 JUMPI JUMPDEST PUSH1 0x0 DUP1 REVERT JUMPDEST PUSH2 0x76 PUSH1 0x4 DUP1 CALLDATASIZE SUB DUP2 ADD SWAP1 PUSH2 0x71 SWAP2 SWAP1 PUSH2 0x3F3 JUMP JUMPDEST PUSH2 0x113 JUMP JUMPDEST PUSH1 0x40 MLOAD PUSH2 0x83 SWAP2 SWAP1 PUSH2 0x455 JUMP JUMPDEST PUSH1 0x40 MLOAD DUP1 SWAP2 SUB SWAP1 RETURN JUMPDEST PUSH2 0xA6 PUSH1 0x4 DUP1 CALLDATASIZE SUB DUP2 ADD SWAP1 PUSH2 0xA1 SWAP2 SWAP1 PUSH2 0x49C JUMP JUMPDEST PUSH2 0x141 JUMP JUMPDEST STOP JUMPDEST PUSH2 0xC2 PUSH1 0x4 DUP1 CALLDATASIZE SUB DUP2 ADD SWAP1 PUSH2 0xBD SWAP2 SWAP1 PUSH2 0x4C9 JUMP JUMPDEST PUSH2 0x14B JUMP JUMPDEST STOP JUMPDEST PUSH2 0xDE PUSH1 0x4 DUP1 CALLDATASIZE SUB DUP2 ADD SWAP1 PUSH2 0xD9 SWAP2 SWAP1 PUSH2 0x49C JUMP JUMPDEST PUSH2 0x1D4 JUMP JUMPDEST PUSH1 0x40 MLOAD PUSH2 0xEC SWAP3 SWAP2 SWAP1 PUSH2 0x5A4 JUMP JUMPDEST PUSH1 0x40 MLOAD DUP1 SWAP2 SUB SWAP1 RETURN JUMPDEST PUSH2 0xFD PUSH2 0x290 JUMP JUMPDEST PUSH1 0x40 MLOAD PUSH2 0x10A SWAP2 SWAP1 PUSH2 0x455 JUMP JUMPDEST PUSH1 0x40 MLOAD DUP1 SWAP2 SUB SWAP1 RETURN JUMPDEST PUSH1 0x2 DUP2 DUP1 MLOAD PUSH1 0x20 DUP2 ADD DUP3 ADD DUP1 MLOAD DUP5 DUP3 MSTORE PUSH1 0x20 DUP4 ADD PUSH1 0x20 DUP6 ADD KECCAK256 DUP2 DUP4 MSTORE DUP1 SWAP6 POP POP POP POP POP POP PUSH1 0x0 SWAP2 POP SWAP1 POP SLOAD DUP2 JUMP JUMPDEST DUP1 PUSH1 0x0 DUP2 SWAP1 SSTORE POP POP JUMP JUMPDEST PUSH1 0x1 PUSH1 0x40 MLOAD DUP1 PUSH1 0x40 ADD PUSH1 0x40 MSTORE DUP1 DUP4 DUP2 MSTORE PUSH1 0x20 ADD DUP5 DUP2 MSTORE POP SWAP1 DUP1 PUSH1 0x1 DUP2 SLOAD ADD DUP1 DUP3 SSTORE DUP1 SWAP2 POP POP PUSH1 0x1 SWAP1 SUB SWAP1 PUSH1 0x0 MSTORE PUSH1 0x20 PUSH1 0x0 KECCAK256 SWAP1 PUSH1 0x2 MUL ADD PUSH1 0x0 SWAP1 SWAP2 SWAP1 SWAP2 SWAP1 SWAP2 POP PUSH1 0x0 DUP3 ADD MLOAD DUP2 PUSH1 0x0 ADD SSTORE PUSH1 0x20 DUP3 ADD MLOAD DUP2 PUSH1 0x1 ADD SWAP1 DUP2 PUSH2 0x1AA SWAP2 SWAP1 PUSH2 0x7E0 JUMP JUMPDEST POP POP POP DUP1 PUSH1 0x2 DUP4 PUSH1 0x40 MLOAD PUSH2 0x1BE SWAP2 SWAP1 PUSH2 0x8EE JUMP JUMPDEST SWAP1 DUP2 MSTORE PUSH1 0x20 ADD PUSH1 0x40 MLOAD DUP1 SWAP2 SUB SWAP1 KECCAK256 DUP2 SWAP1 SSTORE POP POP POP JUMP JUMPDEST PUSH1 0x1 DUP2 DUP2 SLOAD DUP2 LT PUSH2 0x1E4 JUMPI PUSH1 0x0 DUP1 REVERT JUMPDEST SWAP1 PUSH1 0x0 MSTORE PUSH1 0x20 PUSH1 0x0 KECCAK256 SWAP1 PUSH1 0x2 MUL ADD PUSH1 0x0 SWAP2 POP SWAP1 POP DUP1 PUSH1 0x0 ADD SLOAD SWAP1 DUP1 PUSH1 0x1 ADD DUP1 SLOAD PUSH2 0x20D SWAP1 PUSH2 0x603 JUMP JUMPDEST DUP1 PUSH1 0x1F ADD PUSH1 0x20 DUP1 SWAP2 DIV MUL PUSH1 0x20 ADD PUSH1 0x40 MLOAD SWAP1 DUP2 ADD PUSH1 0x40 MSTORE DUP1 SWAP3 SWAP2 SWAP1 DUP2 DUP2 MSTORE PUSH1 0x20 ADD DUP3 DUP1 SLOAD PUSH2 0x239 SWAP1 PUSH2 0x603 JUMP JUMPDEST DUP1 ISZERO PUSH2 0x286 JUMPI DUP1 PUSH1 0x1F LT PUSH2 0x25B JUMPI PUSH2 0x100 DUP1 DUP4 SLOAD DIV MUL DUP4 MSTORE SWAP2 PUSH1 0x20 ADD SWAP2 PUSH2 0x286 JUMP JUMPDEST DUP3 ADD SWAP2 SWAP1 PUSH1 0x0 MSTORE PUSH1 0x20 PUSH1 0x0 KECCAK256 SWAP1 JUMPDEST DUP2 SLOAD DUP2 MSTORE SWAP1 PUSH1 0x1 ADD SWAP1 PUSH1 0x20 ADD DUP1 DUP4 GT PUSH2 0x269 JUMPI DUP3 SWAP1 SUB PUSH1 0x1F AND DUP3 ADD SWAP2 JUMPDEST POP POP POP POP POP SWAP1 POP DUP3 JUMP JUMPDEST PUSH1 0x0 DUP1 SLOAD SWAP1 POP SWAP1 JUMP JUMPDEST PUSH1 0x0 PUSH1 0x40 MLOAD SWAP1 POP SWAP1 JUMP JUMPDEST PUSH1 0x0 DUP1 REVERT JUMPDEST PUSH1 0x0 DUP1 REVERT JUMPDEST PUSH1 0x0 DUP1 REVERT JUMPDEST PUSH1 0x0 DUP1 REVERT JUMPDEST PUSH1 0x0 PUSH1 0x1F NOT PUSH1 0x1F DUP4 ADD AND SWAP1 POP SWAP2 SWAP1 POP JUMP JUMPDEST PUSH32 0x4E487B7100000000000000000000000000000000000000000000000000000000 PUSH1 0x0 MSTORE PUSH1 0x41 PUSH1 0x4 MSTORE PUSH1 0x24 PUSH1 0x0 REVERT JUMPDEST PUSH2 0x300 DUP3 PUSH2 0x2B7 JUMP JUMPDEST DUP2 ADD DUP2 DUP2 LT PUSH8 0xFFFFFFFFFFFFFFFF DUP3 GT OR ISZERO PUSH2 0x31F JUMPI PUSH2 0x31E PUSH2 0x2C8 JUMP JUMPDEST JUMPDEST DUP1 PUSH1 0x40 MSTORE POP POP POP JUMP JUMPDEST PUSH1 0x0 PUSH2 0x332 PUSH2 0x299 JUMP JUMPDEST SWAP1 POP PUSH2 0x33E DUP3 DUP3 PUSH2 0x2F7 JUMP JUMPDEST SWAP2 SWAP1 POP JUMP JUMPDEST PUSH1 0x0 PUSH8 0xFFFFFFFFFFFFFFFF DUP3 GT ISZERO PUSH2 0x35E JUMPI PUSH2 0x35D PUSH2 0x2C8 JUMP JUMPDEST JUMPDEST PUSH2 0x367 DUP3 PUSH2 0x2B7 JUMP JUMPDEST SWAP1 POP PUSH1 0x20 DUP2 ADD SWAP1 POP SWAP2 SWAP1 POP JUMP JUMPDEST DUP3 DUP2 DUP4 CALLDATACOPY PUSH1 0x0 DUP4 DUP4 ADD MSTORE POP POP POP JUMP JUMPDEST PUSH1 0x0 PUSH2 0x396 PUSH2 0x391 DUP5 PUSH2 0x343 JUMP JUMPDEST PUSH2 0x328 JUMP JUMPDEST SWAP1 POP DUP3 DUP2 MSTORE PUSH1 0x20 DUP2 ADD DUP5 DUP5 DUP5 ADD GT ISZERO PUSH2 0x3B2 JUMPI PUSH2 0x3B1 PUSH2 0x2B2 JUMP JUMPDEST JUMPDEST PUSH2 0x3BD DUP5 DUP3 DUP6 PUSH2 0x374 JUMP JUMPDEST POP SWAP4 SWAP3 POP POP POP JUMP JUMPDEST PUSH1 0x0 DUP3 PUSH1 0x1F DUP4 ADD SLT PUSH2 0x3DA JUMPI PUSH2 0x3D9 PUSH2 0x2AD JUMP JUMPDEST JUMPDEST DUP2 CALLDATALOAD PUSH2 0x3EA DUP5 DUP3 PUSH1 0x20 DUP7 ADD PUSH2 0x383 JUMP JUMPDEST SWAP2 POP POP SWAP3 SWAP2 POP POP JUMP JUMPDEST PUSH1 0x0 PUSH1 0x20 DUP3 DUP5 SUB SLT ISZERO PUSH2 0x409 JUMPI PUSH2 0x408 PUSH2 0x2A3 JUMP JUMPDEST JUMPDEST PUSH1 0x0 DUP3 ADD CALLDATALOAD PUSH8 0xFFFFFFFFFFFFFFFF DUP2 GT ISZERO PUSH2 0x427 JUMPI PUSH2 0x426 PUSH2 0x2A8 JUMP JUMPDEST JUMPDEST PUSH2 0x433 DUP5 DUP3 DUP6 ADD PUSH2 0x3C5 JUMP JUMPDEST SWAP2 POP POP SWAP3 SWAP2 POP POP JUMP JUMPDEST PUSH1 0x0 DUP2 SWAP1 POP SWAP2 SWAP1 POP JUMP JUMPDEST PUSH2 0x44F DUP2 PUSH2 0x43C JUMP JUMPDEST DUP3 MSTORE POP POP JUMP JUMPDEST PUSH1 0x0 PUSH1 0x20 DUP3 ADD SWAP1 POP PUSH2 0x46A PUSH1 0x0 DUP4 ADD DUP5 PUSH2 0x446 JUMP JUMPDEST SWAP3 SWAP2 POP POP JUMP JUMPDEST PUSH2 0x479 DUP2 PUSH2 0x43C JUMP JUMPDEST DUP2 EQ PUSH2 0x484 JUMPI PUSH1 0x0 DUP1 REVERT JUMPDEST POP JUMP JUMPDEST PUSH1 0x0 DUP2 CALLDATALOAD SWAP1 POP PUSH2 0x496 DUP2 PUSH2 0x470 JUMP JUMPDEST SWAP3 SWAP2 POP POP JUMP JUMPDEST PUSH1 0x0 PUSH1 0x20 DUP3 DUP5 SUB SLT ISZERO PUSH2 0x4B2 JUMPI PUSH2 0x4B1 PUSH2 0x2A3 JUMP JUMPDEST JUMPDEST PUSH1 0x0 PUSH2 0x4C0 DUP5 DUP3 DUP6 ADD PUSH2 0x487 JUMP JUMPDEST SWAP2 POP POP SWAP3 SWAP2 POP POP JUMP JUMPDEST PUSH1 0x0 DUP1 PUSH1 0x40 DUP4 DUP6 SUB SLT ISZERO PUSH2 0x4E0 JUMPI PUSH2 0x4DF PUSH2 0x2A3 JUMP JUMPDEST JUMPDEST PUSH1 0x0 DUP4 ADD CALLDATALOAD PUSH8 0xFFFFFFFFFFFFFFFF DUP2 GT ISZERO PUSH2 0x4FE JUMPI PUSH2 0x4FD PUSH2 0x2A8 JUMP JUMPDEST JUMPDEST PUSH2 0x50A DUP6 DUP3 DUP7 ADD PUSH2 0x3C5 JUMP JUMPDEST SWAP3 POP POP PUSH1 0x20 PUSH2 0x51B DUP6 DUP3 DUP7 ADD PUSH2 0x487 JUMP JUMPDEST SWAP2 POP POP SWAP3 POP SWAP3 SWAP1 POP JUMP JUMPDEST PUSH1 0x0 DUP2 MLOAD SWAP1 POP SWAP2 SWAP1 POP JUMP JUMPDEST PUSH1 0x0 DUP3 DUP3 MSTORE PUSH1 0x20 DUP3 ADD SWAP1 POP SWAP3 SWAP2 POP POP JUMP JUMPDEST PUSH1 0x0 JUMPDEST DUP4 DUP2 LT ISZERO PUSH2 0x55F JUMPI DUP1 DUP3 ADD MLOAD DUP2 DUP5 ADD MSTORE PUSH1 0x20 DUP2 ADD SWAP1 POP PUSH2 0x544 JUMP JUMPDEST PUSH1 0x0 DUP5 DUP5 ADD MSTORE POP POP POP POP JUMP JUMPDEST PUSH1 0x0 PUSH2 0x576 DUP3 PUSH2 0x525 JUMP JUMPDEST PUSH2 0x580 DUP2 DUP6 PUSH2 0x530 JUMP JUMPDEST SWAP4 POP PUSH2 0x590 DUP2 DUP6 PUSH1 0x20 DUP7 ADD PUSH2 0x541 JUMP JUMPDEST PUSH2 0x599 DUP2 PUSH2 0x2B7 JUMP JUMPDEST DUP5 ADD SWAP2 POP POP SWAP3 SWAP2 POP POP JUMP JUMPDEST PUSH1 0x0 PUSH1 0x40 DUP3 ADD SWAP1 POP PUSH2 0x5B9 PUSH1 0x0 DUP4 ADD DUP6 PUSH2 0x446 JUMP JUMPDEST DUP2 DUP2 SUB PUSH1 0x20 DUP4 ADD MSTORE PUSH2 0x5CB DUP2 DUP5 PUSH2 0x56B JUMP JUMPDEST SWAP1 POP SWAP4 SWAP3 POP POP POP JUMP JUMPDEST PUSH32 0x4E487B7100000000000000000000000000000000000000000000000000000000 PUSH1 0x0 MSTORE PUSH1 0x22 PUSH1 0x4 MSTORE PUSH1 0x24 PUSH1 0x0 REVERT JUMPDEST PUSH1 0x0 PUSH1 0x2 DUP3 DIV SWAP1 POP PUSH1 0x1 DUP3 AND DUP1 PUSH2 0x61B JUMPI PUSH1 0x7F DUP3 AND SWAP2 POP JUMPDEST PUSH1 0x20 DUP3 LT DUP2 SUB PUSH2 0x62E JUMPI PUSH2 0x62D PUSH2 0x5D4 JUMP JUMPDEST JUMPDEST POP SWAP2 SWAP1 POP JUMP JUMPDEST PUSH1 0x0 DUP2 SWAP1 POP DUP2 PUSH1 0x0 MSTORE PUSH1 0x20 PUSH1 0x0 KECCAK256 SWAP1 POP SWAP2 SWAP1 POP JUMP JUMPDEST PUSH1 0x0 PUSH1 0x20 PUSH1 0x1F DUP4 ADD DIV SWAP1 POP SWAP2 SWAP1 POP JUMP JUMPDEST PUSH1 0x0 DUP3 DUP3 SHL SWAP1 POP SWAP3 SWAP2 POP POP JUMP JUMPDEST PUSH1 0x0 PUSH1 0x8 DUP4 MUL PUSH2 0x696 PUSH32 0xFFFFFFFFFFFFFFFFFFFFFFFFFFFFFFFFFFFFFFFFFFFFFFFFFFFFFFFFFFFFFFFF DUP3 PUSH2 0x659 JUMP JUMPDEST PUSH2 0x6A0 DUP7 DUP4 PUSH2 0x659 JUMP JUMPDEST SWAP6 POP DUP1 NOT DUP5 AND SWAP4 POP DUP1 DUP7 AND DUP5 OR SWAP3 POP POP POP SWAP4 SWAP3 POP POP POP JUMP JUMPDEST PUSH1 0x0 DUP2 SWAP1 POP SWAP2 SWAP1 POP JUMP JUMPDEST PUSH1 0x0 PUSH2 0x6DD PUSH2 0x6D8 PUSH2 0x6D3 DUP5 PUSH2 0x43C JUMP JUMPDEST PUSH2 0x6B8 JUMP JUMPDEST PUSH2 0x43C JUMP JUMPDEST SWAP1 POP SWAP2 SWAP1 POP JUMP JUMPDEST PUSH1 0x0 DUP2 SWAP1 POP SWAP2 SWAP1 POP JUMP JUMPDEST PUSH2 0x6F7 DUP4 PUSH2 0x6C2 JUMP JUMPDEST PUSH2 0x70B PUSH2 0x703 DUP3 PUSH2 0x6E4 JUMP JUMPDEST DUP5 DUP5 SLOAD PUSH2 0x666 JUMP JUMPDEST DUP3 SSTORE POP POP POP POP JUMP JUMPDEST PUSH1 0x0 SWAP1 JUMP JUMPDEST PUSH2 0x720 PUSH2 0x713 JUMP JUMPDEST PUSH2 0x72B DUP2 DUP5 DUP5 PUSH2 0x6EE JUMP JUMPDEST POP POP POP JUMP JUMPDEST JUMPDEST DUP2 DUP2 LT ISZERO PUSH2 0x74F JUMPI PUSH2 0x744 PUSH1 0x0 DUP3 PUSH2 0x718 JUMP JUMPDEST PUSH1 0x1 DUP2 ADD SWAP1 POP PUSH2 0x731 JUMP JUMPDEST POP POP JUMP JUMPDEST PUSH1 0x1F DUP3 GT ISZERO PUSH2 0x794 JUMPI PUSH2 0x765 DUP2 PUSH2 0x634 JUMP JUMPDEST PUSH2 0x76E DUP5 PUSH2 0x649 JUMP JUMPDEST DUP2 ADD PUSH1 0x20 DUP6 LT ISZERO PUSH2 0x77D JUMPI DUP2 SWAP1 POP JUMPDEST PUSH2 0x791 PUSH2 0x789 DUP6 PUSH2 0x649 JUMP JUMPDEST DUP4 ADD DUP3 PUSH2 0x730 JUMP JUMPDEST POP POP JUMPDEST POP POP POP JUMP JUMPDEST PUSH1 0x0 DUP3 DUP3 SHR SWAP1 POP SWAP3 SWAP2 POP POP JUMP JUMPDEST PUSH1 0x0 PUSH2 0x7B7 PUSH1 0x0 NOT DUP5 PUSH1 0x8 MUL PUSH2 0x799 JUMP JUMPDEST NOT DUP1 DUP4 AND SWAP2 POP POP SWAP3 SWAP2 POP POP JUMP JUMPDEST PUSH1 0x0 PUSH2 0x7D0 DUP4 DUP4 PUSH2 0x7A6 JUMP JUMPDEST SWAP2 POP DUP3 PUSH1 0x2 MUL DUP3 OR SWAP1 POP SWAP3 SWAP2 POP POP JUMP JUMPDEST PUSH2 0x7E9 DUP3 PUSH2 0x525 JUMP JUMPDEST PUSH8 0xFFFFFFFFFFFFFFFF DUP2 GT ISZERO PUSH2 0x802 JUMPI PUSH2 0x801 PUSH2 0x2C8 JUMP JUMPDEST JUMPDEST PUSH2 0x80C DUP3 SLOAD PUSH2 0x603 JUMP JUMPDEST PUSH2 0x817 DUP3 DUP3 DUP6 PUSH2 0x753 JUMP JUMPDEST PUSH1 0x0 PUSH1 0x20 SWAP1 POP PUSH1 0x1F DUP4 GT PUSH1 0x1 DUP2 EQ PUSH2 0x84A JUMPI PUSH1 0x0 DUP5 ISZERO PUSH2 0x838 JUMPI DUP3 DUP8 ADD MLOAD SWAP1 POP JUMPDEST PUSH2 0x842 DUP6 DUP3 PUSH2 0x7C4 JUMP JUMPDEST DUP7 SSTORE POP PUSH2 0x8AA JUMP JUMPDEST PUSH1 0x1F NOT DUP5 AND PUSH2 0x858 DUP7 PUSH2 0x634 JUMP JUMPDEST PUSH1 0x0 JUMPDEST DUP3 DUP2 LT ISZERO PUSH2 0x880 JUMPI DUP5 DUP10 ADD MLOAD DUP3 SSTORE PUSH1 0x1 DUP3 ADD SWAP2 POP PUSH1 0x20 DUP6 ADD SWAP5 POP PUSH1 0x20 DUP2 ADD SWAP1 POP PUSH2 0x85B JUMP JUMPDEST DUP7 DUP4 LT ISZERO PUSH2 0x89D JUMPI DUP5 DUP10 ADD MLOAD PUSH2 0x899 PUSH1 0x1F DUP10 AND DUP3 PUSH2 0x7A6 JUMP JUMPDEST DUP4 SSTORE POP JUMPDEST PUSH1 0x1 PUSH1 0x2 DUP9 MUL ADD DUP9 SSTORE POP POP POP JUMPDEST POP POP POP POP POP POP JUMP JUMPDEST PUSH1 0x0 DUP2 SWAP1 POP SWAP3 SWAP2 POP POP JUMP JUMPDEST PUSH1 0x0 PUSH2 0x8C8 DUP3 PUSH2 0x525 JUMP JUMPDEST PUSH2 0x8D2 DUP2 DUP6 PUSH2 0x8B2 JUMP JUMPDEST SWAP4 POP PUSH2 0x8E2 DUP2 DUP6 PUSH1 0x20 DUP7 ADD PUSH2 0x541 JUMP JUMPDEST DUP1 DUP5 ADD SWAP2 POP POP SWAP3 SWAP2 POP POP JUMP JUMPDEST PUSH1 0x0 PUSH2 0x8FA DUP3 DUP5 PUSH2 0x8BD JUMP JUMPDEST SWAP2 POP DUP2 SWAP1 POP SWAP3 SWAP2 POP POP JUMP INVALID LOG2 PUSH5 0x6970667358 0x22 SLT KECCAK256 INVALID PUSH22 0xE818950A68E9F591F82285846FD2B7E788193A31B911 CALLDATALOAD 0x29 0x2D 0xB5 0x26 0xB2 LOG2 0xCB PUSH5 0x736F6C6343 STOP ADDMOD XOR STOP CALLER LOG2 PUSH5 0x6970667358 0x22 SLT KECCAK256 0xCC DUP12 NOT 0xE4 SLOAD NUMBER LOG4 PUSH23 0x8B07D758E851256F1E61FD278D034215528F14F8A60353 0xE5 PUSH5 0x736F6C6343 STOP ADDMOD XOR STOP CALLER "
				},
				"gasEstimates": {
					"creation": {
						"codeDepositCost": "743600",
						"executionCost": "779",
						"totalCost": "744379"
					},
					"external": {
						"createSimpleStorage()": "infinite",
						"get(uint256)": "infinite",
						"simpleStorageArray(uint256)": "infinite",
						"storeFromFactory(uint256,uint256)": "infinite"
					}
				},
				"methodIdentifiers": {
					"createSimpleStorage()": "40d66b3b",
					"get(uint256)": "9507d39a",
					"simpleStorageArray(uint256)": "64591bf1",
					"storeFromFactory(uint256,uint256)": "6e97897e"
				}
			},
			"storageLayout": {
				"storage": [
					{
						"astId": 65,
						"contract": "contracts/StorageFactory.sol:StorageFactory",
						"label": "simpleStorageArray",
						"offset": 0,
						"slot": "0",
						"type": "t_array(t_contract(Storage)58)dyn_storage"
					}
				],
				"types": {
					"t_array(t_contract(Storage)58)dyn_storage": {
						"base": "t_contract(Storage)58",
						"encoding": "dynamic_array",
						"label": "contract Storage[]",
						"numberOfBytes": "32"
					},
					"t_contract(Storage)58": {
						"encoding": "inplace",
						"label": "contract Storage",
						"numberOfBytes": "20"
					}
				}
			},
			"userdoc": {
				"kind": "user",
				"methods": {},
				"version": 1
			}
		}
	}
}